{"abi":[{"inputs":[{"internalType":"uint256","name":"minimum","type":"uint256"},{"internalType":"address","name":"creator","type":"address"}],"stateMutability":"nonpayable","type":"constructor"},{"inputs":[{"internalType":"uint256","name":"index","type":"uint256"}],"name":"approveRequest","outputs":[],"stateMutability":"nonpayable","type":"function"},{"inputs":[{"internalType":"address","name":"","type":"address"}],"name":"approvers","outputs":[{"internalType":"bool","name":"","type":"bool"}],"stateMutability":"view","type":"function"},{"inputs":[],"name":"approversCount","outputs":[{"internalType":"uint256","name":"","type":"uint256"}],"stateMutability":"view","type":"function"},{"inputs":[],"name":"contribute","outputs":[],"stateMutability":"payable","type":"function"},{"inputs":[{"internalType":"string","name":"description","type":"string"},{"internalType":"uint256","name":"value","type":"uint256"},{"internalType":"address payable","name":"recipent","type":"address"}],"name":"createRequest","outputs":[],"stateMutability":"nonpayable","type":"function"},{"inputs":[{"internalType":"uint256","name":"index","type":"uint256"}],"name":"finalizeRequest","outputs":[],"stateMutability":"nonpayable","type":"function"},{"inputs":[],"name":"getRequestsCount","outputs":[{"internalType":"uint256","name":"","type":"uint256"}],"stateMutability":"view","type":"function"},{"inputs":[{"internalType":"uint256","name":"","type":"uint256"}],"name":"getSummary","outputs":[{"internalType":"uint256","name":"","type":"uint256"},{"internalType":"uint256","name":"","type":"uint256"},{"internalType":"uint256","name":"","type":"uint256"},{"internalType":"uint256","name":"","type":"uint256"},{"internalType":"address","name":"","type":"address"}],"stateMutability":"view","type":"function"},{"inputs":[],"name":"manager","outputs":[{"internalType":"address payable","name":"","type":"address"}],"stateMutability":"view","type":"function"},{"inputs":[],"name":"minContribution","outputs":[{"internalType":"uint256","name":"","type":"uint256"}],"stateMutability":"view","type":"function"},{"inputs":[{"internalType":"uint256","name":"","type":"uint256"}],"name":"request","outputs":[{"internalType":"string","name":"description","type":"string"},{"internalType":"uint256","name":"value","type":"uint256"},{"internalType":"address payable","name":"recipent","type":"address"},{"internalType":"bool","name":"complete","type":"bool"},{"internalType":"uint256","name":"approvalCount","type":"uint256"}],"stateMutability":"view","type":"function"}],"devdoc":{"kind":"dev","methods":{},"version":1},"evm":{"assembly":"    /* \"Campaign.sol\":417:2922  contract Campaign {... */\n  mstore(0x40, 0x80)\n    /* \"Campaign.sol\":545:546  0 */\n  0x00\n    /* \"Campaign.sol\":513:546  uint256 public approversCount = 0 */\n  0x02\n  sstore\n    /* \"Campaign.sol\":840:964  constructor(uint256 minimum, address creator) {... */\n  callvalue\n  dup1\n  iszero\n  tag_1\n  jumpi\n  0x00\n  dup1\n  revert\ntag_1:\n  pop\n  mload(0x40)\n  sub(codesize, bytecodeSize)\n  dup1\n  bytecodeSize\n  dup4\n  codecopy\n  dup2\n  dup2\n  add\n  0x40\n  mstore\n  dup2\n  add\n  swap1\n  tag_2\n  swap2\n  swap1\n  tag_3\n  jump\t// in\ntag_2:\n    /* \"Campaign.sol\":914:921  creator */\n  dup1\n    /* \"Campaign.sol\":896:903  manager */\n  0x00\n  dup1\n    /* \"Campaign.sol\":896:922  manager = payable(creator) */\n  0x0100\n  exp\n  dup2\n  sload\n  dup2\n  0xffffffffffffffffffffffffffffffffffffffff\n  mul\n  not\n  and\n  swap1\n  dup4\n  0xffffffffffffffffffffffffffffffffffffffff\n  and\n  mul\n  or\n  swap1\n  sstore\n  pop\n    /* \"Campaign.sol\":950:957  minimum */\n  dup2\n    /* \"Campaign.sol\":932:947  minContribution */\n  0x01\n    /* \"Campaign.sol\":932:957  minContribution = minimum */\n  dup2\n  swap1\n  sstore\n  pop\n    /* \"Campaign.sol\":840:964  constructor(uint256 minimum, address creator) {... */\n  pop\n  pop\n    /* \"Campaign.sol\":417:2922  contract Campaign {... */\n  jump(tag_6)\n    /* \"#utility.yul\":88:205   */\ntag_8:\n    /* \"#utility.yul\":197:198   */\n  0x00\n    /* \"#utility.yul\":194:195   */\n  dup1\n    /* \"#utility.yul\":187:199   */\n  revert\n    /* \"#utility.yul\":334:411   */\ntag_10:\n    /* \"#utility.yul\":371:378   */\n  0x00\n    /* \"#utility.yul\":400:405   */\n  dup2\n    /* \"#utility.yul\":389:405   */\n  swap1\n  pop\n    /* \"#utility.yul\":334:411   */\n  swap2\n  swap1\n  pop\n  jump\t// out\n    /* \"#utility.yul\":417:539   */\ntag_11:\n    /* \"#utility.yul\":490:514   */\n  tag_23\n    /* \"#utility.yul\":508:513   */\n  dup2\n    /* \"#utility.yul\":490:514   */\n  tag_10\n  jump\t// in\ntag_23:\n    /* \"#utility.yul\":483:488   */\n  dup2\n    /* \"#utility.yul\":480:515   */\n  eq\n    /* \"#utility.yul\":470:533   */\n  tag_24\n  jumpi\n    /* \"#utility.yul\":529:530   */\n  0x00\n    /* \"#utility.yul\":526:527   */\n  dup1\n    /* \"#utility.yul\":519:531   */\n  revert\n    /* \"#utility.yul\":470:533   */\ntag_24:\n    /* \"#utility.yul\":417:539   */\n  pop\n  jump\t// out\n    /* \"#utility.yul\":545:688   */\ntag_12:\n    /* \"#utility.yul\":602:607   */\n  0x00\n    /* \"#utility.yul\":633:639   */\n  dup2\n    /* \"#utility.yul\":627:640   */\n  mload\n    /* \"#utility.yul\":618:640   */\n  swap1\n  pop\n    /* \"#utility.yul\":649:682   */\n  tag_26\n    /* \"#utility.yul\":676:681   */\n  dup2\n    /* \"#utility.yul\":649:682   */\n  tag_11\n  jump\t// in\ntag_26:\n    /* \"#utility.yul\":545:688   */\n  swap3\n  swap2\n  pop\n  pop\n  jump\t// out\n    /* \"#utility.yul\":694:820   */\ntag_13:\n    /* \"#utility.yul\":731:738   */\n  0x00\n    /* \"#utility.yul\":771:813   */\n  0xffffffffffffffffffffffffffffffffffffffff\n    /* \"#utility.yul\":764:769   */\n  dup3\n    /* \"#utility.yul\":760:814   */\n  and\n    /* \"#utility.yul\":749:814   */\n  swap1\n  pop\n    /* \"#utility.yul\":694:820   */\n  swap2\n  swap1\n  pop\n  jump\t// out\n    /* \"#utility.yul\":826:922   */\ntag_14:\n    /* \"#utility.yul\":863:870   */\n  0x00\n    /* \"#utility.yul\":892:916   */\n  tag_29\n    /* \"#utility.yul\":910:915   */\n  dup3\n    /* \"#utility.yul\":892:916   */\n  tag_13\n  jump\t// in\ntag_29:\n    /* \"#utility.yul\":881:916   */\n  swap1\n  pop\n    /* \"#utility.yul\":826:922   */\n  swap2\n  swap1\n  pop\n  jump\t// out\n    /* \"#utility.yul\":928:1050   */\ntag_15:\n    /* \"#utility.yul\":1001:1025   */\n  tag_31\n    /* \"#utility.yul\":1019:1024   */\n  dup2\n    /* \"#utility.yul\":1001:1025   */\n  tag_14\n  jump\t// in\ntag_31:\n    /* \"#utility.yul\":994:999   */\n  dup2\n    /* \"#utility.yul\":991:1026   */\n  eq\n    /* \"#utility.yul\":981:1044   */\n  tag_32\n  jumpi\n    /* \"#utility.yul\":1040:1041   */\n  0x00\n    /* \"#utility.yul\":1037:1038   */\n  dup1\n    /* \"#utility.yul\":1030:1042   */\n  revert\n    /* \"#utility.yul\":981:1044   */\ntag_32:\n    /* \"#utility.yul\":928:1050   */\n  pop\n  jump\t// out\n    /* \"#utility.yul\":1056:1199   */\ntag_16:\n    /* \"#utility.yul\":1113:1118   */\n  0x00\n    /* \"#utility.yul\":1144:1150   */\n  dup2\n    /* \"#utility.yul\":1138:1151   */\n  mload\n    /* \"#utility.yul\":1129:1151   */\n  swap1\n  pop\n    /* \"#utility.yul\":1160:1193   */\n  tag_34\n    /* \"#utility.yul\":1187:1192   */\n  dup2\n    /* \"#utility.yul\":1160:1193   */\n  tag_15\n  jump\t// in\ntag_34:\n    /* \"#utility.yul\":1056:1199   */\n  swap3\n  swap2\n  pop\n  pop\n  jump\t// out\n    /* \"#utility.yul\":1205:1712   */\ntag_3:\n    /* \"#utility.yul\":1284:1290   */\n  0x00\n    /* \"#utility.yul\":1292:1298   */\n  dup1\n    /* \"#utility.yul\":1341:1343   */\n  0x40\n    /* \"#utility.yul\":1329:1338   */\n  dup4\n    /* \"#utility.yul\":1320:1327   */\n  dup6\n    /* \"#utility.yul\":1316:1339   */\n  sub\n    /* \"#utility.yul\":1312:1344   */\n  slt\n    /* \"#utility.yul\":1309:1428   */\n  iszero\n  tag_36\n  jumpi\n    /* \"#utility.yul\":1347:1426   */\n  tag_37\n  tag_8\n  jump\t// in\ntag_37:\n    /* \"#utility.yul\":1309:1428   */\ntag_36:\n    /* \"#utility.yul\":1467:1468   */\n  0x00\n    /* \"#utility.yul\":1492:1556   */\n  tag_38\n    /* \"#utility.yul\":1548:1555   */\n  dup6\n    /* \"#utility.yul\":1539:1545   */\n  dup3\n    /* \"#utility.yul\":1528:1537   */\n  dup7\n    /* \"#utility.yul\":1524:1546   */\n  add\n    /* \"#utility.yul\":1492:1556   */\n  tag_12\n  jump\t// in\ntag_38:\n    /* \"#utility.yul\":1482:1556   */\n  swap3\n  pop\n    /* \"#utility.yul\":1438:1566   */\n  pop\n    /* \"#utility.yul\":1605:1607   */\n  0x20\n    /* \"#utility.yul\":1631:1695   */\n  tag_39\n    /* \"#utility.yul\":1687:1694   */\n  dup6\n    /* \"#utility.yul\":1678:1684   */\n  dup3\n    /* \"#utility.yul\":1667:1676   */\n  dup7\n    /* \"#utility.yul\":1663:1685   */\n  add\n    /* \"#utility.yul\":1631:1695   */\n  tag_16\n  jump\t// in\ntag_39:\n    /* \"#utility.yul\":1621:1695   */\n  swap2\n  pop\n    /* \"#utility.yul\":1576:1705   */\n  pop\n    /* \"#utility.yul\":1205:1712   */\n  swap3\n  pop\n  swap3\n  swap1\n  pop\n  jump\t// out\n    /* \"Campaign.sol\":417:2922  contract Campaign {... */\ntag_6:\n  dataSize(sub_0)\n  dup1\n  dataOffset(sub_0)\n  0x00\n  codecopy\n  0x00\n  return\nstop\n\nsub_0: assembly {\n        /* \"Campaign.sol\":417:2922  contract Campaign {... */\n      mstore(0x40, 0x80)\n      jumpi(tag_1, lt(calldatasize, 0x04))\n      shr(0xe0, calldataload(0x00))\n      dup1\n      0x8a9cfd55\n      gt\n      tag_13\n      jumpi\n      dup1\n      0x8a9cfd55\n      eq\n      tag_7\n      jumpi\n      dup1\n      0xaaffadf3\n      eq\n      tag_8\n      jumpi\n      dup1\n      0xaee14460\n      eq\n      tag_9\n      jumpi\n      dup1\n      0xd7bb99ba\n      eq\n      tag_10\n      jumpi\n      dup1\n      0xd7d1bbdb\n      eq\n      tag_11\n      jumpi\n      dup1\n      0xd845a4b3\n      eq\n      tag_12\n      jumpi\n      jump(tag_1)\n    tag_13:\n      dup1\n      0x03441006\n      eq\n      tag_2\n      jumpi\n      dup1\n      0x0a144391\n      eq\n      tag_3\n      jumpi\n      dup1\n      0x3410452a\n      eq\n      tag_4\n      jumpi\n      dup1\n      0x481c6a75\n      eq\n      tag_5\n      jumpi\n      dup1\n      0x82fde093\n      eq\n      tag_6\n      jumpi\n    tag_1:\n      0x00\n      dup1\n      revert\n        /* \"Campaign.sol\":1993:2348  function finalizeRequest(uint256 index) public restricted {... */\n    tag_2:\n      callvalue\n      dup1\n      iszero\n      tag_14\n      jumpi\n      0x00\n      dup1\n      revert\n    tag_14:\n      pop\n      tag_15\n      0x04\n      dup1\n      calldatasize\n      sub\n      dup2\n      add\n      swap1\n      tag_16\n      swap2\n      swap1\n      tag_17\n      jump\t// in\n    tag_16:\n      tag_18\n      jump\t// in\n    tag_15:\n      stop\n        /* \"Campaign.sol\":552:593  mapping(address => bool) public approvers */\n    tag_3:\n      callvalue\n      dup1\n      iszero\n      tag_19\n      jumpi\n      0x00\n      dup1\n      revert\n    tag_19:\n      pop\n      tag_20\n      0x04\n      dup1\n      calldatasize\n      sub\n      dup2\n      add\n      swap1\n      tag_21\n      swap2\n      swap1\n      tag_22\n      jump\t// in\n    tag_21:\n      tag_23\n      jump\t// in\n    tag_20:\n      mload(0x40)\n      tag_24\n      swap2\n      swap1\n      tag_25\n      jump\t// in\n    tag_24:\n      mload(0x40)\n      dup1\n      swap2\n      sub\n      swap1\n      return\n        /* \"Campaign.sol\":2830:2920  function getRequestsCount()public view returns(uint){... */\n    tag_4:\n      callvalue\n      dup1\n      iszero\n      tag_26\n      jumpi\n      0x00\n      dup1\n      revert\n    tag_26:\n      pop\n      tag_27\n      tag_28\n      jump\t// in\n    tag_27:\n      mload(0x40)\n      tag_29\n      swap2\n      swap1\n      tag_30\n      jump\t// in\n    tag_29:\n      mload(0x40)\n      dup1\n      swap2\n      sub\n      swap1\n      return\n        /* \"Campaign.sol\":441:471  address payable public manager */\n    tag_5:\n      callvalue\n      dup1\n      iszero\n      tag_31\n      jumpi\n      0x00\n      dup1\n      revert\n    tag_31:\n      pop\n      tag_32\n      tag_33\n      jump\t// in\n    tag_32:\n      mload(0x40)\n      tag_34\n      swap2\n      swap1\n      tag_35\n      jump\t// in\n    tag_34:\n      mload(0x40)\n      dup1\n      swap2\n      sub\n      swap1\n      return\n        /* \"Campaign.sol\":513:546  uint256 public approversCount = 0 */\n    tag_6:\n      callvalue\n      dup1\n      iszero\n      tag_36\n      jumpi\n      0x00\n      dup1\n      revert\n    tag_36:\n      pop\n      tag_37\n      tag_38\n      jump\t// in\n    tag_37:\n      mload(0x40)\n      tag_39\n      swap2\n      swap1\n      tag_30\n      jump\t// in\n    tag_39:\n      mload(0x40)\n      dup1\n      swap2\n      sub\n      swap1\n      return\n        /* \"Campaign.sol\":1300:1694  function createRequest(... */\n    tag_7:\n      callvalue\n      dup1\n      iszero\n      tag_40\n      jumpi\n      0x00\n      dup1\n      revert\n    tag_40:\n      pop\n      tag_41\n      0x04\n      dup1\n      calldatasize\n      sub\n      dup2\n      add\n      swap1\n      tag_42\n      swap2\n      swap1\n      tag_43\n      jump\t// in\n    tag_42:\n      tag_44\n      jump\t// in\n    tag_41:\n      stop\n        /* \"Campaign.sol\":477:507  uint256 public minContribution */\n    tag_8:\n      callvalue\n      dup1\n      iszero\n      tag_45\n      jumpi\n      0x00\n      dup1\n      revert\n    tag_45:\n      pop\n      tag_46\n      tag_47\n      jump\t// in\n    tag_46:\n      mload(0x40)\n      tag_48\n      swap2\n      swap1\n      tag_30\n      jump\t// in\n    tag_48:\n      mload(0x40)\n      dup1\n      swap2\n      sub\n      swap1\n      return\n        /* \"Campaign.sol\":2354:2722  function getSummary(uint256)... */\n    tag_9:\n      callvalue\n      dup1\n      iszero\n      tag_49\n      jumpi\n      0x00\n      dup1\n      revert\n    tag_49:\n      pop\n      tag_50\n      0x04\n      dup1\n      calldatasize\n      sub\n      dup2\n      add\n      swap1\n      tag_51\n      swap2\n      swap1\n      tag_17\n      jump\t// in\n    tag_51:\n      tag_52\n      jump\t// in\n    tag_50:\n      mload(0x40)\n      tag_53\n      swap6\n      swap5\n      swap4\n      swap3\n      swap2\n      swap1\n      tag_54\n      jump\t// in\n    tag_53:\n      mload(0x40)\n      dup1\n      swap2\n      sub\n      swap1\n      return\n        /* \"Campaign.sol\":1161:1294  function contribute() public payable checkMinimumContribution {... */\n    tag_10:\n      tag_55\n      tag_56\n      jump\t// in\n    tag_55:\n      stop\n        /* \"Campaign.sol\":1700:1987  function approveRequest(uint256 index) public {... */\n    tag_11:\n      callvalue\n      dup1\n      iszero\n      tag_57\n      jumpi\n      0x00\n      dup1\n      revert\n    tag_57:\n      pop\n      tag_58\n      0x04\n      dup1\n      calldatasize\n      sub\n      dup2\n      add\n      swap1\n      tag_59\n      swap2\n      swap1\n      tag_17\n      jump\t// in\n    tag_59:\n      tag_60\n      jump\t// in\n    tag_58:\n      stop\n        /* \"Campaign.sol\":809:833  Request[] public request */\n    tag_12:\n      callvalue\n      dup1\n      iszero\n      tag_61\n      jumpi\n      0x00\n      dup1\n      revert\n    tag_61:\n      pop\n      tag_62\n      0x04\n      dup1\n      calldatasize\n      sub\n      dup2\n      add\n      swap1\n      tag_63\n      swap2\n      swap1\n      tag_17\n      jump\t// in\n    tag_63:\n      tag_64\n      jump\t// in\n    tag_62:\n      mload(0x40)\n      tag_65\n      swap6\n      swap5\n      swap4\n      swap3\n      swap2\n      swap1\n      tag_66\n      jump\t// in\n    tag_65:\n      mload(0x40)\n      dup1\n      swap2\n      sub\n      swap1\n      return\n        /* \"Campaign.sol\":1993:2348  function finalizeRequest(uint256 index) public restricted {... */\n    tag_18:\n        /* \"Campaign.sol\":1024:1031  manager */\n      0x00\n      dup1\n      sload\n      swap1\n      0x0100\n      exp\n      swap1\n      div\n      0xffffffffffffffffffffffffffffffffffffffff\n      and\n        /* \"Campaign.sol\":1010:1031  msg.sender == manager */\n      0xffffffffffffffffffffffffffffffffffffffff\n      and\n        /* \"Campaign.sol\":1010:1020  msg.sender */\n      caller\n        /* \"Campaign.sol\":1010:1031  msg.sender == manager */\n      0xffffffffffffffffffffffffffffffffffffffff\n      and\n      eq\n        /* \"Campaign.sol\":1002:1032  require(msg.sender == manager) */\n      tag_68\n      jumpi\n      0x00\n      dup1\n      revert\n    tag_68:\n        /* \"Campaign.sol\":2061:2094  Request storage requestToFinalize */\n      0x00\n        /* \"Campaign.sol\":2097:2104  request */\n      0x04\n        /* \"Campaign.sol\":2105:2110  index */\n      dup3\n        /* \"Campaign.sol\":2097:2111  request[index] */\n      dup2\n      sload\n      dup2\n      lt\n      tag_70\n      jumpi\n      tag_71\n      tag_72\n      jump\t// in\n    tag_71:\n    tag_70:\n      swap1\n      0x00\n      mstore\n      keccak256(0x00, 0x20)\n      swap1\n      0x05\n      mul\n      add\n        /* \"Campaign.sol\":2061:2111  Request storage requestToFinalize = request[index] */\n      swap1\n      pop\n        /* \"Campaign.sol\":2180:2181  2 */\n      0x02\n        /* \"Campaign.sol\":2163:2177  approversCount */\n      dup1\n      sload\n        /* \"Campaign.sol\":2163:2181  approversCount / 2 */\n      tag_74\n      swap2\n      swap1\n      tag_75\n      jump\t// in\n    tag_74:\n        /* \"Campaign.sol\":2129:2146  requestToFinalize */\n      dup2\n        /* \"Campaign.sol\":2129:2160  requestToFinalize.approvalCount */\n      0x03\n      add\n      sload\n        /* \"Campaign.sol\":2129:2181  requestToFinalize.approvalCount > approversCount / 2 */\n      gt\n        /* \"Campaign.sol\":2121:2182  require(requestToFinalize.approvalCount > approversCount / 2) */\n      tag_76\n      jumpi\n      0x00\n      dup1\n      revert\n    tag_76:\n        /* \"Campaign.sol\":2201:2218  requestToFinalize */\n      dup1\n        /* \"Campaign.sol\":2201:2227  requestToFinalize.complete */\n      0x02\n      add\n      0x14\n      swap1\n      sload\n      swap1\n      0x0100\n      exp\n      swap1\n      div\n      0xff\n      and\n        /* \"Campaign.sol\":2200:2227  !requestToFinalize.complete */\n      iszero\n        /* \"Campaign.sol\":2192:2228  require(!requestToFinalize.complete) */\n      tag_77\n      jumpi\n      0x00\n      dup1\n      revert\n    tag_77:\n        /* \"Campaign.sol\":2267:2271  true */\n      0x01\n        /* \"Campaign.sol\":2238:2255  requestToFinalize */\n      dup2\n        /* \"Campaign.sol\":2238:2264  requestToFinalize.complete */\n      0x02\n      add\n      0x14\n        /* \"Campaign.sol\":2238:2271  requestToFinalize.complete = true */\n      0x0100\n      exp\n      dup2\n      sload\n      dup2\n      0xff\n      mul\n      not\n      and\n      swap1\n      dup4\n      iszero\n      iszero\n      mul\n      or\n      swap1\n      sstore\n      pop\n        /* \"Campaign.sol\":2281:2298  requestToFinalize */\n      dup1\n        /* \"Campaign.sol\":2281:2307  requestToFinalize.recipent */\n      0x02\n      add\n      0x00\n      swap1\n      sload\n      swap1\n      0x0100\n      exp\n      swap1\n      div\n      0xffffffffffffffffffffffffffffffffffffffff\n      and\n        /* \"Campaign.sol\":2281:2316  requestToFinalize.recipent.transfer */\n      0xffffffffffffffffffffffffffffffffffffffff\n      and\n        /* \"Campaign.sol\":2281:2341  requestToFinalize.recipent.transfer(requestToFinalize.value) */\n      0x08fc\n        /* \"Campaign.sol\":2317:2334  requestToFinalize */\n      dup3\n        /* \"Campaign.sol\":2317:2340  requestToFinalize.value */\n      0x01\n      add\n      sload\n        /* \"Campaign.sol\":2281:2341  requestToFinalize.recipent.transfer(requestToFinalize.value) */\n      swap1\n      dup2\n      iszero\n      mul\n      swap1\n      mload(0x40)\n      0x00\n      mload(0x40)\n      dup1\n      dup4\n      sub\n      dup2\n      dup6\n      dup9\n      dup9\n      call\n      swap4\n      pop\n      pop\n      pop\n      pop\n      iszero\n      dup1\n      iszero\n      tag_79\n      jumpi\n      returndatasize\n      0x00\n      dup1\n      returndatacopy\n      revert(0x00, returndatasize)\n    tag_79:\n      pop\n        /* \"Campaign.sol\":2051:2348  {... */\n      pop\n        /* \"Campaign.sol\":1993:2348  function finalizeRequest(uint256 index) public restricted {... */\n      pop\n      jump\t// out\n        /* \"Campaign.sol\":552:593  mapping(address => bool) public approvers */\n    tag_23:\n      mstore(0x20, 0x03)\n      dup1\n      0x00\n      mstore\n      keccak256(0x00, 0x40)\n      0x00\n      swap2\n      pop\n      sload\n      swap1\n      0x0100\n      exp\n      swap1\n      div\n      0xff\n      and\n      dup2\n      jump\t// out\n        /* \"Campaign.sol\":2830:2920  function getRequestsCount()public view returns(uint){... */\n    tag_28:\n        /* \"Campaign.sol\":2877:2881  uint */\n      0x00\n        /* \"Campaign.sol\":2899:2906  request */\n      0x04\n        /* \"Campaign.sol\":2899:2913  request.length */\n      dup1\n      sload\n      swap1\n      pop\n        /* \"Campaign.sol\":2892:2913  return request.length */\n      swap1\n      pop\n        /* \"Campaign.sol\":2830:2920  function getRequestsCount()public view returns(uint){... */\n      swap1\n      jump\t// out\n        /* \"Campaign.sol\":441:471  address payable public manager */\n    tag_33:\n      0x00\n      dup1\n      sload\n      swap1\n      0x0100\n      exp\n      swap1\n      div\n      0xffffffffffffffffffffffffffffffffffffffff\n      and\n      dup2\n      jump\t// out\n        /* \"Campaign.sol\":513:546  uint256 public approversCount = 0 */\n    tag_38:\n      sload(0x02)\n      dup2\n      jump\t// out\n        /* \"Campaign.sol\":1300:1694  function createRequest(... */\n    tag_44:\n        /* \"Campaign.sol\":1024:1031  manager */\n      0x00\n      dup1\n      sload\n      swap1\n      0x0100\n      exp\n      swap1\n      div\n      0xffffffffffffffffffffffffffffffffffffffff\n      and\n        /* \"Campaign.sol\":1010:1031  msg.sender == manager */\n      0xffffffffffffffffffffffffffffffffffffffff\n      and\n        /* \"Campaign.sol\":1010:1020  msg.sender */\n      caller\n        /* \"Campaign.sol\":1010:1031  msg.sender == manager */\n      0xffffffffffffffffffffffffffffffffffffffff\n      and\n      eq\n        /* \"Campaign.sol\":1002:1032  require(msg.sender == manager) */\n      tag_82\n      jumpi\n      0x00\n      dup1\n      revert\n    tag_82:\n        /* \"Campaign.sol\":1449:1475  Request storage newRequest */\n      0x00\n        /* \"Campaign.sol\":1478:1485  request */\n      0x04\n        /* \"Campaign.sol\":1478:1492  request.push() */\n      0x01\n      dup2\n      0x01\n      dup2\n      sload\n      add\n      dup1\n      dup3\n      sstore\n      dup1\n      swap2\n      pop\n      pop\n      sub\n      swap1\n      0x00\n      mstore\n      keccak256(0x00, 0x20)\n      swap1\n      0x05\n      mul\n      add\n        /* \"Campaign.sol\":1449:1492  Request storage newRequest = request.push() */\n      swap1\n      pop\n        /* \"Campaign.sol\":1527:1538  description */\n      dup4\n        /* \"Campaign.sol\":1502:1512  newRequest */\n      dup2\n        /* \"Campaign.sol\":1502:1524  newRequest.description */\n      0x00\n      add\n        /* \"Campaign.sol\":1502:1538  newRequest.description = description */\n      swap1\n      dup2\n      tag_85\n      swap2\n      swap1\n      tag_86\n      jump\t// in\n    tag_85:\n      pop\n        /* \"Campaign.sol\":1567:1572  value */\n      dup3\n        /* \"Campaign.sol\":1548:1558  newRequest */\n      dup2\n        /* \"Campaign.sol\":1548:1564  newRequest.value */\n      0x01\n      add\n        /* \"Campaign.sol\":1548:1572  newRequest.value = value */\n      dup2\n      swap1\n      sstore\n      pop\n        /* \"Campaign.sol\":1604:1612  recipent */\n      dup2\n        /* \"Campaign.sol\":1582:1592  newRequest */\n      dup2\n        /* \"Campaign.sol\":1582:1601  newRequest.recipent */\n      0x02\n      add\n      0x00\n        /* \"Campaign.sol\":1582:1612  newRequest.recipent = recipent */\n      0x0100\n      exp\n      dup2\n      sload\n      dup2\n      0xffffffffffffffffffffffffffffffffffffffff\n      mul\n      not\n      and\n      swap1\n      dup4\n      0xffffffffffffffffffffffffffffffffffffffff\n      and\n      mul\n      or\n      swap1\n      sstore\n      pop\n        /* \"Campaign.sol\":1644:1649  false */\n      0x00\n        /* \"Campaign.sol\":1622:1632  newRequest */\n      dup2\n        /* \"Campaign.sol\":1622:1641  newRequest.complete */\n      0x02\n      add\n      0x14\n        /* \"Campaign.sol\":1622:1649  newRequest.complete = false */\n      0x0100\n      exp\n      dup2\n      sload\n      dup2\n      0xff\n      mul\n      not\n      and\n      swap1\n      dup4\n      iszero\n      iszero\n      mul\n      or\n      swap1\n      sstore\n      pop\n        /* \"Campaign.sol\":1686:1687  0 */\n      0x00\n        /* \"Campaign.sol\":1659:1669  newRequest */\n      dup2\n        /* \"Campaign.sol\":1659:1683  newRequest.approvalCount */\n      0x03\n      add\n        /* \"Campaign.sol\":1659:1687  newRequest.approvalCount = 0 */\n      dup2\n      swap1\n      sstore\n      pop\n        /* \"Campaign.sol\":1439:1694  {... */\n      pop\n        /* \"Campaign.sol\":1300:1694  function createRequest(... */\n      pop\n      pop\n      pop\n      jump\t// out\n        /* \"Campaign.sol\":477:507  uint256 public minContribution */\n    tag_47:\n      sload(0x01)\n      dup2\n      jump\t// out\n        /* \"Campaign.sol\":2354:2722  function getSummary(uint256)... */\n    tag_52:\n        /* \"Campaign.sol\":2441:2448  uint256 */\n      0x00\n        /* \"Campaign.sol\":2462:2469  uint256 */\n      dup1\n        /* \"Campaign.sol\":2483:2490  uint256 */\n      0x00\n        /* \"Campaign.sol\":2504:2511  uint256 */\n      dup1\n        /* \"Campaign.sol\":2525:2532  address */\n      0x00\n        /* \"Campaign.sol\":2578:2599  address(this).balance */\n      selfbalance\n        /* \"Campaign.sol\":2613:2620  request */\n      0x04\n        /* \"Campaign.sol\":2613:2627  request.length */\n      dup1\n      sload\n      swap1\n      pop\n        /* \"Campaign.sol\":2641:2656  minContribution */\n      sload(0x01)\n        /* \"Campaign.sol\":2670:2684  approversCount */\n      sload(0x02)\n        /* \"Campaign.sol\":2698:2705  manager */\n      0x00\n      dup1\n      sload\n      swap1\n      0x0100\n      exp\n      swap1\n      div\n      0xffffffffffffffffffffffffffffffffffffffff\n      and\n        /* \"Campaign.sol\":2557:2715  return (... */\n      swap5\n      pop\n      swap5\n      pop\n      swap5\n      pop\n      swap5\n      pop\n      swap5\n      pop\n        /* \"Campaign.sol\":2354:2722  function getSummary(uint256)... */\n      swap2\n      swap4\n      swap6\n      swap1\n      swap3\n      swap5\n      pop\n      jump\t// out\n        /* \"Campaign.sol\":1161:1294  function contribute() public payable checkMinimumContribution {... */\n    tag_56:\n        /* \"Campaign.sol\":1121:1136  minContribution */\n      sload(0x01)\n        /* \"Campaign.sol\":1109:1118  msg.value */\n      callvalue\n        /* \"Campaign.sol\":1109:1136  msg.value > minContribution */\n      gt\n        /* \"Campaign.sol\":1101:1137  require(msg.value > minContribution) */\n      tag_89\n      jumpi\n      0x00\n      dup1\n      revert\n    tag_89:\n        /* \"Campaign.sol\":1257:1261  true */\n      0x01\n        /* \"Campaign.sol\":1233:1242  approvers */\n      0x03\n        /* \"Campaign.sol\":1233:1254  approvers[msg.sender] */\n      0x00\n        /* \"Campaign.sol\":1243:1253  msg.sender */\n      caller\n        /* \"Campaign.sol\":1233:1254  approvers[msg.sender] */\n      0xffffffffffffffffffffffffffffffffffffffff\n      and\n      0xffffffffffffffffffffffffffffffffffffffff\n      and\n      dup2\n      mstore\n      0x20\n      add\n      swap1\n      dup2\n      mstore\n      0x20\n      add\n      0x00\n      keccak256\n      0x00\n        /* \"Campaign.sol\":1233:1261  approvers[msg.sender] = true */\n      0x0100\n      exp\n      dup2\n      sload\n      dup2\n      0xff\n      mul\n      not\n      and\n      swap1\n      dup4\n      iszero\n      iszero\n      mul\n      or\n      swap1\n      sstore\n      pop\n        /* \"Campaign.sol\":1271:1285  approversCount */\n      0x02\n      0x00\n        /* \"Campaign.sol\":1271:1287  approversCount++ */\n      dup2\n      sload\n      dup1\n      swap3\n      swap2\n      swap1\n      tag_91\n      swap1\n      tag_92\n      jump\t// in\n    tag_91:\n      swap2\n      swap1\n      pop\n      sstore\n      pop\n        /* \"Campaign.sol\":1161:1294  function contribute() public payable checkMinimumContribution {... */\n      jump\t// out\n        /* \"Campaign.sol\":1700:1987  function approveRequest(uint256 index) public {... */\n    tag_60:\n        /* \"Campaign.sol\":1756:1783  Request storage requestFind */\n      0x00\n        /* \"Campaign.sol\":1786:1793  request */\n      0x04\n        /* \"Campaign.sol\":1794:1799  index */\n      dup3\n        /* \"Campaign.sol\":1786:1800  request[index] */\n      dup2\n      sload\n      dup2\n      lt\n      tag_94\n      jumpi\n      tag_95\n      tag_72\n      jump\t// in\n    tag_95:\n    tag_94:\n      swap1\n      0x00\n      mstore\n      keccak256(0x00, 0x20)\n      swap1\n      0x05\n      mul\n      add\n        /* \"Campaign.sol\":1756:1800  Request storage requestFind = request[index] */\n      swap1\n      pop\n        /* \"Campaign.sol\":1818:1827  approvers */\n      0x03\n        /* \"Campaign.sol\":1818:1839  approvers[msg.sender] */\n      0x00\n        /* \"Campaign.sol\":1828:1838  msg.sender */\n      caller\n        /* \"Campaign.sol\":1818:1839  approvers[msg.sender] */\n      0xffffffffffffffffffffffffffffffffffffffff\n      and\n      0xffffffffffffffffffffffffffffffffffffffff\n      and\n      dup2\n      mstore\n      0x20\n      add\n      swap1\n      dup2\n      mstore\n      0x20\n      add\n      0x00\n      keccak256\n      0x00\n      swap1\n      sload\n      swap1\n      0x0100\n      exp\n      swap1\n      div\n      0xff\n      and\n        /* \"Campaign.sol\":1810:1840  require(approvers[msg.sender]) */\n      tag_97\n      jumpi\n      0x00\n      dup1\n      revert\n    tag_97:\n        /* \"Campaign.sol\":1859:1870  requestFind */\n      dup1\n        /* \"Campaign.sol\":1859:1880  requestFind.approvals */\n      0x04\n      add\n        /* \"Campaign.sol\":1859:1892  requestFind.approvals[msg.sender] */\n      0x00\n        /* \"Campaign.sol\":1881:1891  msg.sender */\n      caller\n        /* \"Campaign.sol\":1859:1892  requestFind.approvals[msg.sender] */\n      0xffffffffffffffffffffffffffffffffffffffff\n      and\n      0xffffffffffffffffffffffffffffffffffffffff\n      and\n      dup2\n      mstore\n      0x20\n      add\n      swap1\n      dup2\n      mstore\n      0x20\n      add\n      0x00\n      keccak256\n      0x00\n      swap1\n      sload\n      swap1\n      0x0100\n      exp\n      swap1\n      div\n      0xff\n      and\n        /* \"Campaign.sol\":1858:1892  !requestFind.approvals[msg.sender] */\n      iszero\n        /* \"Campaign.sol\":1850:1893  require(!requestFind.approvals[msg.sender]) */\n      tag_98\n      jumpi\n      0x00\n      dup1\n      revert\n    tag_98:\n        /* \"Campaign.sol\":1939:1943  true */\n      0x01\n        /* \"Campaign.sol\":1903:1914  requestFind */\n      dup2\n        /* \"Campaign.sol\":1903:1924  requestFind.approvals */\n      0x04\n      add\n        /* \"Campaign.sol\":1903:1936  requestFind.approvals[msg.sender] */\n      0x00\n        /* \"Campaign.sol\":1925:1935  msg.sender */\n      caller\n        /* \"Campaign.sol\":1903:1936  requestFind.approvals[msg.sender] */\n      0xffffffffffffffffffffffffffffffffffffffff\n      and\n      0xffffffffffffffffffffffffffffffffffffffff\n      and\n      dup2\n      mstore\n      0x20\n      add\n      swap1\n      dup2\n      mstore\n      0x20\n      add\n      0x00\n      keccak256\n      0x00\n        /* \"Campaign.sol\":1903:1943  requestFind.approvals[msg.sender] = true */\n      0x0100\n      exp\n      dup2\n      sload\n      dup2\n      0xff\n      mul\n      not\n      and\n      swap1\n      dup4\n      iszero\n      iszero\n      mul\n      or\n      swap1\n      sstore\n      pop\n        /* \"Campaign.sol\":1953:1964  requestFind */\n      dup1\n        /* \"Campaign.sol\":1953:1978  requestFind.approvalCount */\n      0x03\n      add\n      0x00\n        /* \"Campaign.sol\":1953:1980  requestFind.approvalCount++ */\n      dup2\n      sload\n      dup1\n      swap3\n      swap2\n      swap1\n      tag_99\n      swap1\n      tag_92\n      jump\t// in\n    tag_99:\n      swap2\n      swap1\n      pop\n      sstore\n      pop\n        /* \"Campaign.sol\":1746:1987  {... */\n      pop\n        /* \"Campaign.sol\":1700:1987  function approveRequest(uint256 index) public {... */\n      pop\n      jump\t// out\n        /* \"Campaign.sol\":809:833  Request[] public request */\n    tag_64:\n      0x04\n      dup2\n      dup2\n      sload\n      dup2\n      lt\n      tag_100\n      jumpi\n      0x00\n      dup1\n      revert\n    tag_100:\n      swap1\n      0x00\n      mstore\n      keccak256(0x00, 0x20)\n      swap1\n      0x05\n      mul\n      add\n      0x00\n      swap2\n      pop\n      swap1\n      pop\n      dup1\n      0x00\n      add\n      dup1\n      sload\n      tag_102\n      swap1\n      tag_103\n      jump\t// in\n    tag_102:\n      dup1\n      0x1f\n      add\n      0x20\n      dup1\n      swap2\n      div\n      mul\n      0x20\n      add\n      mload(0x40)\n      swap1\n      dup2\n      add\n      0x40\n      mstore\n      dup1\n      swap3\n      swap2\n      swap1\n      dup2\n      dup2\n      mstore\n      0x20\n      add\n      dup3\n      dup1\n      sload\n      tag_104\n      swap1\n      tag_103\n      jump\t// in\n    tag_104:\n      dup1\n      iszero\n      tag_105\n      jumpi\n      dup1\n      0x1f\n      lt\n      tag_106\n      jumpi\n      0x0100\n      dup1\n      dup4\n      sload\n      div\n      mul\n      dup4\n      mstore\n      swap2\n      0x20\n      add\n      swap2\n      jump(tag_105)\n    tag_106:\n      dup3\n      add\n      swap2\n      swap1\n      0x00\n      mstore\n      keccak256(0x00, 0x20)\n      swap1\n    tag_107:\n      dup2\n      sload\n      dup2\n      mstore\n      swap1\n      0x01\n      add\n      swap1\n      0x20\n      add\n      dup1\n      dup4\n      gt\n      tag_107\n      jumpi\n      dup3\n      swap1\n      sub\n      0x1f\n      and\n      dup3\n      add\n      swap2\n    tag_105:\n      pop\n      pop\n      pop\n      pop\n      pop\n      swap1\n      dup1\n      0x01\n      add\n      sload\n      swap1\n      dup1\n      0x02\n      add\n      0x00\n      swap1\n      sload\n      swap1\n      0x0100\n      exp\n      swap1\n      div\n      0xffffffffffffffffffffffffffffffffffffffff\n      and\n      swap1\n      dup1\n      0x02\n      add\n      0x14\n      swap1\n      sload\n      swap1\n      0x0100\n      exp\n      swap1\n      div\n      0xff\n      and\n      swap1\n      dup1\n      0x03\n      add\n      sload\n      swap1\n      pop\n      dup6\n      jump\t// out\n        /* \"#utility.yul\":7:82   */\n    tag_108:\n        /* \"#utility.yul\":40:46   */\n      0x00\n        /* \"#utility.yul\":73:75   */\n      0x40\n        /* \"#utility.yul\":67:76   */\n      mload\n        /* \"#utility.yul\":57:76   */\n      swap1\n      pop\n        /* \"#utility.yul\":7:82   */\n      swap1\n      jump\t// out\n        /* \"#utility.yul\":88:205   */\n    tag_109:\n        /* \"#utility.yul\":197:198   */\n      0x00\n        /* \"#utility.yul\":194:195   */\n      dup1\n        /* \"#utility.yul\":187:199   */\n      revert\n        /* \"#utility.yul\":211:328   */\n    tag_110:\n        /* \"#utility.yul\":320:321   */\n      0x00\n        /* \"#utility.yul\":317:318   */\n      dup1\n        /* \"#utility.yul\":310:322   */\n      revert\n        /* \"#utility.yul\":334:411   */\n    tag_111:\n        /* \"#utility.yul\":371:378   */\n      0x00\n        /* \"#utility.yul\":400:405   */\n      dup2\n        /* \"#utility.yul\":389:405   */\n      swap1\n      pop\n        /* \"#utility.yul\":334:411   */\n      swap2\n      swap1\n      pop\n      jump\t// out\n        /* \"#utility.yul\":417:539   */\n    tag_112:\n        /* \"#utility.yul\":490:514   */\n      tag_164\n        /* \"#utility.yul\":508:513   */\n      dup2\n        /* \"#utility.yul\":490:514   */\n      tag_111\n      jump\t// in\n    tag_164:\n        /* \"#utility.yul\":483:488   */\n      dup2\n        /* \"#utility.yul\":480:515   */\n      eq\n        /* \"#utility.yul\":470:533   */\n      tag_165\n      jumpi\n        /* \"#utility.yul\":529:530   */\n      0x00\n        /* \"#utility.yul\":526:527   */\n      dup1\n        /* \"#utility.yul\":519:531   */\n      revert\n        /* \"#utility.yul\":470:533   */\n    tag_165:\n        /* \"#utility.yul\":417:539   */\n      pop\n      jump\t// out\n        /* \"#utility.yul\":545:684   */\n    tag_113:\n        /* \"#utility.yul\":591:596   */\n      0x00\n        /* \"#utility.yul\":629:635   */\n      dup2\n        /* \"#utility.yul\":616:636   */\n      calldataload\n        /* \"#utility.yul\":607:636   */\n      swap1\n      pop\n        /* \"#utility.yul\":645:678   */\n      tag_167\n        /* \"#utility.yul\":672:677   */\n      dup2\n        /* \"#utility.yul\":645:678   */\n      tag_112\n      jump\t// in\n    tag_167:\n        /* \"#utility.yul\":545:684   */\n      swap3\n      swap2\n      pop\n      pop\n      jump\t// out\n        /* \"#utility.yul\":690:1019   */\n    tag_17:\n        /* \"#utility.yul\":749:755   */\n      0x00\n        /* \"#utility.yul\":798:800   */\n      0x20\n        /* \"#utility.yul\":786:795   */\n      dup3\n        /* \"#utility.yul\":777:784   */\n      dup5\n        /* \"#utility.yul\":773:796   */\n      sub\n        /* \"#utility.yul\":769:801   */\n      slt\n        /* \"#utility.yul\":766:885   */\n      iszero\n      tag_169\n      jumpi\n        /* \"#utility.yul\":804:883   */\n      tag_170\n      tag_109\n      jump\t// in\n    tag_170:\n        /* \"#utility.yul\":766:885   */\n    tag_169:\n        /* \"#utility.yul\":924:925   */\n      0x00\n        /* \"#utility.yul\":949:1002   */\n      tag_171\n        /* \"#utility.yul\":994:1001   */\n      dup5\n        /* \"#utility.yul\":985:991   */\n      dup3\n        /* \"#utility.yul\":974:983   */\n      dup6\n        /* \"#utility.yul\":970:992   */\n      add\n        /* \"#utility.yul\":949:1002   */\n      tag_113\n      jump\t// in\n    tag_171:\n        /* \"#utility.yul\":939:1002   */\n      swap2\n      pop\n        /* \"#utility.yul\":895:1012   */\n      pop\n        /* \"#utility.yul\":690:1019   */\n      swap3\n      swap2\n      pop\n      pop\n      jump\t// out\n        /* \"#utility.yul\":1025:1151   */\n    tag_114:\n        /* \"#utility.yul\":1062:1069   */\n      0x00\n        /* \"#utility.yul\":1102:1144   */\n      0xffffffffffffffffffffffffffffffffffffffff\n        /* \"#utility.yul\":1095:1100   */\n      dup3\n        /* \"#utility.yul\":1091:1145   */\n      and\n        /* \"#utility.yul\":1080:1145   */\n      swap1\n      pop\n        /* \"#utility.yul\":1025:1151   */\n      swap2\n      swap1\n      pop\n      jump\t// out\n        /* \"#utility.yul\":1157:1253   */\n    tag_115:\n        /* \"#utility.yul\":1194:1201   */\n      0x00\n        /* \"#utility.yul\":1223:1247   */\n      tag_174\n        /* \"#utility.yul\":1241:1246   */\n      dup3\n        /* \"#utility.yul\":1223:1247   */\n      tag_114\n      jump\t// in\n    tag_174:\n        /* \"#utility.yul\":1212:1247   */\n      swap1\n      pop\n        /* \"#utility.yul\":1157:1253   */\n      swap2\n      swap1\n      pop\n      jump\t// out\n        /* \"#utility.yul\":1259:1381   */\n    tag_116:\n        /* \"#utility.yul\":1332:1356   */\n      tag_176\n        /* \"#utility.yul\":1350:1355   */\n      dup2\n        /* \"#utility.yul\":1332:1356   */\n      tag_115\n      jump\t// in\n    tag_176:\n        /* \"#utility.yul\":1325:1330   */\n      dup2\n        /* \"#utility.yul\":1322:1357   */\n      eq\n        /* \"#utility.yul\":1312:1375   */\n      tag_177\n      jumpi\n        /* \"#utility.yul\":1371:1372   */\n      0x00\n        /* \"#utility.yul\":1368:1369   */\n      dup1\n        /* \"#utility.yul\":1361:1373   */\n      revert\n        /* \"#utility.yul\":1312:1375   */\n    tag_177:\n        /* \"#utility.yul\":1259:1381   */\n      pop\n      jump\t// out\n        /* \"#utility.yul\":1387:1526   */\n    tag_117:\n        /* \"#utility.yul\":1433:1438   */\n      0x00\n        /* \"#utility.yul\":1471:1477   */\n      dup2\n        /* \"#utility.yul\":1458:1478   */\n      calldataload\n        /* \"#utility.yul\":1449:1478   */\n      swap1\n      pop\n        /* \"#utility.yul\":1487:1520   */\n      tag_179\n        /* \"#utility.yul\":1514:1519   */\n      dup2\n        /* \"#utility.yul\":1487:1520   */\n      tag_116\n      jump\t// in\n    tag_179:\n        /* \"#utility.yul\":1387:1526   */\n      swap3\n      swap2\n      pop\n      pop\n      jump\t// out\n        /* \"#utility.yul\":1532:1861   */\n    tag_22:\n        /* \"#utility.yul\":1591:1597   */\n      0x00\n        /* \"#utility.yul\":1640:1642   */\n      0x20\n        /* \"#utility.yul\":1628:1637   */\n      dup3\n        /* \"#utility.yul\":1619:1626   */\n      dup5\n        /* \"#utility.yul\":1615:1638   */\n      sub\n        /* \"#utility.yul\":1611:1643   */\n      slt\n        /* \"#utility.yul\":1608:1727   */\n      iszero\n      tag_181\n      jumpi\n        /* \"#utility.yul\":1646:1725   */\n      tag_182\n      tag_109\n      jump\t// in\n    tag_182:\n        /* \"#utility.yul\":1608:1727   */\n    tag_181:\n        /* \"#utility.yul\":1766:1767   */\n      0x00\n        /* \"#utility.yul\":1791:1844   */\n      tag_183\n        /* \"#utility.yul\":1836:1843   */\n      dup5\n        /* \"#utility.yul\":1827:1833   */\n      dup3\n        /* \"#utility.yul\":1816:1825   */\n      dup6\n        /* \"#utility.yul\":1812:1834   */\n      add\n        /* \"#utility.yul\":1791:1844   */\n      tag_117\n      jump\t// in\n    tag_183:\n        /* \"#utility.yul\":1781:1844   */\n      swap2\n      pop\n        /* \"#utility.yul\":1737:1854   */\n      pop\n        /* \"#utility.yul\":1532:1861   */\n      swap3\n      swap2\n      pop\n      pop\n      jump\t// out\n        /* \"#utility.yul\":1867:1957   */\n    tag_118:\n        /* \"#utility.yul\":1901:1908   */\n      0x00\n        /* \"#utility.yul\":1944:1949   */\n      dup2\n        /* \"#utility.yul\":1937:1950   */\n      iszero\n        /* \"#utility.yul\":1930:1951   */\n      iszero\n        /* \"#utility.yul\":1919:1951   */\n      swap1\n      pop\n        /* \"#utility.yul\":1867:1957   */\n      swap2\n      swap1\n      pop\n      jump\t// out\n        /* \"#utility.yul\":1963:2072   */\n    tag_119:\n        /* \"#utility.yul\":2044:2065   */\n      tag_186\n        /* \"#utility.yul\":2059:2064   */\n      dup2\n        /* \"#utility.yul\":2044:2065   */\n      tag_118\n      jump\t// in\n    tag_186:\n        /* \"#utility.yul\":2039:2042   */\n      dup3\n        /* \"#utility.yul\":2032:2066   */\n      mstore\n        /* \"#utility.yul\":1963:2072   */\n      pop\n      pop\n      jump\t// out\n        /* \"#utility.yul\":2078:2288   */\n    tag_25:\n        /* \"#utility.yul\":2165:2169   */\n      0x00\n        /* \"#utility.yul\":2203:2205   */\n      0x20\n        /* \"#utility.yul\":2192:2201   */\n      dup3\n        /* \"#utility.yul\":2188:2206   */\n      add\n        /* \"#utility.yul\":2180:2206   */\n      swap1\n      pop\n        /* \"#utility.yul\":2216:2281   */\n      tag_188\n        /* \"#utility.yul\":2278:2279   */\n      0x00\n        /* \"#utility.yul\":2267:2276   */\n      dup4\n        /* \"#utility.yul\":2263:2280   */\n      add\n        /* \"#utility.yul\":2254:2260   */\n      dup5\n        /* \"#utility.yul\":2216:2281   */\n      tag_119\n      jump\t// in\n    tag_188:\n        /* \"#utility.yul\":2078:2288   */\n      swap3\n      swap2\n      pop\n      pop\n      jump\t// out\n        /* \"#utility.yul\":2294:2412   */\n    tag_120:\n        /* \"#utility.yul\":2381:2405   */\n      tag_190\n        /* \"#utility.yul\":2399:2404   */\n      dup2\n        /* \"#utility.yul\":2381:2405   */\n      tag_111\n      jump\t// in\n    tag_190:\n        /* \"#utility.yul\":2376:2379   */\n      dup3\n        /* \"#utility.yul\":2369:2406   */\n      mstore\n        /* \"#utility.yul\":2294:2412   */\n      pop\n      pop\n      jump\t// out\n        /* \"#utility.yul\":2418:2640   */\n    tag_30:\n        /* \"#utility.yul\":2511:2515   */\n      0x00\n        /* \"#utility.yul\":2549:2551   */\n      0x20\n        /* \"#utility.yul\":2538:2547   */\n      dup3\n        /* \"#utility.yul\":2534:2552   */\n      add\n        /* \"#utility.yul\":2526:2552   */\n      swap1\n      pop\n        /* \"#utility.yul\":2562:2633   */\n      tag_192\n        /* \"#utility.yul\":2630:2631   */\n      0x00\n        /* \"#utility.yul\":2619:2628   */\n      dup4\n        /* \"#utility.yul\":2615:2632   */\n      add\n        /* \"#utility.yul\":2606:2612   */\n      dup5\n        /* \"#utility.yul\":2562:2633   */\n      tag_120\n      jump\t// in\n    tag_192:\n        /* \"#utility.yul\":2418:2640   */\n      swap3\n      swap2\n      pop\n      pop\n      jump\t// out\n        /* \"#utility.yul\":2646:2750   */\n    tag_121:\n        /* \"#utility.yul\":2691:2698   */\n      0x00\n        /* \"#utility.yul\":2720:2744   */\n      tag_194\n        /* \"#utility.yul\":2738:2743   */\n      dup3\n        /* \"#utility.yul\":2720:2744   */\n      tag_114\n      jump\t// in\n    tag_194:\n        /* \"#utility.yul\":2709:2744   */\n      swap1\n      pop\n        /* \"#utility.yul\":2646:2750   */\n      swap2\n      swap1\n      pop\n      jump\t// out\n        /* \"#utility.yul\":2756:2898   */\n    tag_122:\n        /* \"#utility.yul\":2859:2891   */\n      tag_196\n        /* \"#utility.yul\":2885:2890   */\n      dup2\n        /* \"#utility.yul\":2859:2891   */\n      tag_121\n      jump\t// in\n    tag_196:\n        /* \"#utility.yul\":2854:2857   */\n      dup3\n        /* \"#utility.yul\":2847:2892   */\n      mstore\n        /* \"#utility.yul\":2756:2898   */\n      pop\n      pop\n      jump\t// out\n        /* \"#utility.yul\":2904:3158   */\n    tag_35:\n        /* \"#utility.yul\":3013:3017   */\n      0x00\n        /* \"#utility.yul\":3051:3053   */\n      0x20\n        /* \"#utility.yul\":3040:3049   */\n      dup3\n        /* \"#utility.yul\":3036:3054   */\n      add\n        /* \"#utility.yul\":3028:3054   */\n      swap1\n      pop\n        /* \"#utility.yul\":3064:3151   */\n      tag_198\n        /* \"#utility.yul\":3148:3149   */\n      0x00\n        /* \"#utility.yul\":3137:3146   */\n      dup4\n        /* \"#utility.yul\":3133:3150   */\n      add\n        /* \"#utility.yul\":3124:3130   */\n      dup5\n        /* \"#utility.yul\":3064:3151   */\n      tag_122\n      jump\t// in\n    tag_198:\n        /* \"#utility.yul\":2904:3158   */\n      swap3\n      swap2\n      pop\n      pop\n      jump\t// out\n        /* \"#utility.yul\":3164:3281   */\n    tag_123:\n        /* \"#utility.yul\":3273:3274   */\n      0x00\n        /* \"#utility.yul\":3270:3271   */\n      dup1\n        /* \"#utility.yul\":3263:3275   */\n      revert\n        /* \"#utility.yul\":3287:3404   */\n    tag_124:\n        /* \"#utility.yul\":3396:3397   */\n      0x00\n        /* \"#utility.yul\":3393:3394   */\n      dup1\n        /* \"#utility.yul\":3386:3398   */\n      revert\n        /* \"#utility.yul\":3410:3512   */\n    tag_125:\n        /* \"#utility.yul\":3451:3457   */\n      0x00\n        /* \"#utility.yul\":3502:3504   */\n      0x1f\n        /* \"#utility.yul\":3498:3505   */\n      not\n        /* \"#utility.yul\":3493:3495   */\n      0x1f\n        /* \"#utility.yul\":3486:3491   */\n      dup4\n        /* \"#utility.yul\":3482:3496   */\n      add\n        /* \"#utility.yul\":3478:3506   */\n      and\n        /* \"#utility.yul\":3468:3506   */\n      swap1\n      pop\n        /* \"#utility.yul\":3410:3512   */\n      swap2\n      swap1\n      pop\n      jump\t// out\n        /* \"#utility.yul\":3518:3698   */\n    tag_126:\n        /* \"#utility.yul\":3566:3643   */\n      0x4e487b7100000000000000000000000000000000000000000000000000000000\n        /* \"#utility.yul\":3563:3564   */\n      0x00\n        /* \"#utility.yul\":3556:3644   */\n      mstore\n        /* \"#utility.yul\":3663:3667   */\n      0x41\n        /* \"#utility.yul\":3660:3661   */\n      0x04\n        /* \"#utility.yul\":3653:3668   */\n      mstore\n        /* \"#utility.yul\":3687:3691   */\n      0x24\n        /* \"#utility.yul\":3684:3685   */\n      0x00\n        /* \"#utility.yul\":3677:3692   */\n      revert\n        /* \"#utility.yul\":3704:3985   */\n    tag_127:\n        /* \"#utility.yul\":3787:3814   */\n      tag_204\n        /* \"#utility.yul\":3809:3813   */\n      dup3\n        /* \"#utility.yul\":3787:3814   */\n      tag_125\n      jump\t// in\n    tag_204:\n        /* \"#utility.yul\":3779:3785   */\n      dup2\n        /* \"#utility.yul\":3775:3815   */\n      add\n        /* \"#utility.yul\":3917:3923   */\n      dup2\n        /* \"#utility.yul\":3905:3915   */\n      dup2\n        /* \"#utility.yul\":3902:3924   */\n      lt\n        /* \"#utility.yul\":3881:3899   */\n      0xffffffffffffffff\n        /* \"#utility.yul\":3869:3879   */\n      dup3\n        /* \"#utility.yul\":3866:3900   */\n      gt\n        /* \"#utility.yul\":3863:3925   */\n      or\n        /* \"#utility.yul\":3860:3948   */\n      iszero\n      tag_205\n      jumpi\n        /* \"#utility.yul\":3928:3946   */\n      tag_206\n      tag_126\n      jump\t// in\n    tag_206:\n        /* \"#utility.yul\":3860:3948   */\n    tag_205:\n        /* \"#utility.yul\":3968:3978   */\n      dup1\n        /* \"#utility.yul\":3964:3966   */\n      0x40\n        /* \"#utility.yul\":3957:3979   */\n      mstore\n        /* \"#utility.yul\":3747:3985   */\n      pop\n        /* \"#utility.yul\":3704:3985   */\n      pop\n      pop\n      jump\t// out\n        /* \"#utility.yul\":3991:4120   */\n    tag_128:\n        /* \"#utility.yul\":4025:4031   */\n      0x00\n        /* \"#utility.yul\":4052:4072   */\n      tag_208\n      tag_108\n      jump\t// in\n    tag_208:\n        /* \"#utility.yul\":4042:4072   */\n      swap1\n      pop\n        /* \"#utility.yul\":4081:4114   */\n      tag_209\n        /* \"#utility.yul\":4109:4113   */\n      dup3\n        /* \"#utility.yul\":4101:4107   */\n      dup3\n        /* \"#utility.yul\":4081:4114   */\n      tag_127\n      jump\t// in\n    tag_209:\n        /* \"#utility.yul\":3991:4120   */\n      swap2\n      swap1\n      pop\n      jump\t// out\n        /* \"#utility.yul\":4126:4434   */\n    tag_129:\n        /* \"#utility.yul\":4188:4192   */\n      0x00\n        /* \"#utility.yul\":4278:4296   */\n      0xffffffffffffffff\n        /* \"#utility.yul\":4270:4276   */\n      dup3\n        /* \"#utility.yul\":4267:4297   */\n      gt\n        /* \"#utility.yul\":4264:4320   */\n      iszero\n      tag_211\n      jumpi\n        /* \"#utility.yul\":4300:4318   */\n      tag_212\n      tag_126\n      jump\t// in\n    tag_212:\n        /* \"#utility.yul\":4264:4320   */\n    tag_211:\n        /* \"#utility.yul\":4338:4367   */\n      tag_213\n        /* \"#utility.yul\":4360:4366   */\n      dup3\n        /* \"#utility.yul\":4338:4367   */\n      tag_125\n      jump\t// in\n    tag_213:\n        /* \"#utility.yul\":4330:4367   */\n      swap1\n      pop\n        /* \"#utility.yul\":4422:4426   */\n      0x20\n        /* \"#utility.yul\":4416:4420   */\n      dup2\n        /* \"#utility.yul\":4412:4427   */\n      add\n        /* \"#utility.yul\":4404:4427   */\n      swap1\n      pop\n        /* \"#utility.yul\":4126:4434   */\n      swap2\n      swap1\n      pop\n      jump\t// out\n        /* \"#utility.yul\":4440:4594   */\n    tag_130:\n        /* \"#utility.yul\":4524:4530   */\n      dup3\n        /* \"#utility.yul\":4519:4522   */\n      dup2\n        /* \"#utility.yul\":4514:4517   */\n      dup4\n        /* \"#utility.yul\":4501:4531   */\n      calldatacopy\n        /* \"#utility.yul\":4586:4587   */\n      0x00\n        /* \"#utility.yul\":4577:4583   */\n      dup4\n        /* \"#utility.yul\":4572:4575   */\n      dup4\n        /* \"#utility.yul\":4568:4584   */\n      add\n        /* \"#utility.yul\":4561:4588   */\n      mstore\n        /* \"#utility.yul\":4440:4594   */\n      pop\n      pop\n      pop\n      jump\t// out\n        /* \"#utility.yul\":4600:5012   */\n    tag_131:\n        /* \"#utility.yul\":4678:4683   */\n      0x00\n        /* \"#utility.yul\":4703:4769   */\n      tag_216\n        /* \"#utility.yul\":4719:4768   */\n      tag_217\n        /* \"#utility.yul\":4761:4767   */\n      dup5\n        /* \"#utility.yul\":4719:4768   */\n      tag_129\n      jump\t// in\n    tag_217:\n        /* \"#utility.yul\":4703:4769   */\n      tag_128\n      jump\t// in\n    tag_216:\n        /* \"#utility.yul\":4694:4769   */\n      swap1\n      pop\n        /* \"#utility.yul\":4792:4798   */\n      dup3\n        /* \"#utility.yul\":4785:4790   */\n      dup2\n        /* \"#utility.yul\":4778:4799   */\n      mstore\n        /* \"#utility.yul\":4830:4834   */\n      0x20\n        /* \"#utility.yul\":4823:4828   */\n      dup2\n        /* \"#utility.yul\":4819:4835   */\n      add\n        /* \"#utility.yul\":4868:4871   */\n      dup5\n        /* \"#utility.yul\":4859:4865   */\n      dup5\n        /* \"#utility.yul\":4854:4857   */\n      dup5\n        /* \"#utility.yul\":4850:4866   */\n      add\n        /* \"#utility.yul\":4847:4872   */\n      gt\n        /* \"#utility.yul\":4844:4956   */\n      iszero\n      tag_218\n      jumpi\n        /* \"#utility.yul\":4875:4954   */\n      tag_219\n      tag_124\n      jump\t// in\n    tag_219:\n        /* \"#utility.yul\":4844:4956   */\n    tag_218:\n        /* \"#utility.yul\":4965:5006   */\n      tag_220\n        /* \"#utility.yul\":4999:5005   */\n      dup5\n        /* \"#utility.yul\":4994:4997   */\n      dup3\n        /* \"#utility.yul\":4989:4992   */\n      dup6\n        /* \"#utility.yul\":4965:5006   */\n      tag_130\n      jump\t// in\n    tag_220:\n        /* \"#utility.yul\":4684:5012   */\n      pop\n        /* \"#utility.yul\":4600:5012   */\n      swap4\n      swap3\n      pop\n      pop\n      pop\n      jump\t// out\n        /* \"#utility.yul\":5032:5372   */\n    tag_132:\n        /* \"#utility.yul\":5088:5093   */\n      0x00\n        /* \"#utility.yul\":5137:5140   */\n      dup3\n        /* \"#utility.yul\":5130:5134   */\n      0x1f\n        /* \"#utility.yul\":5122:5128   */\n      dup4\n        /* \"#utility.yul\":5118:5135   */\n      add\n        /* \"#utility.yul\":5114:5141   */\n      slt\n        /* \"#utility.yul\":5104:5226   */\n      tag_222\n      jumpi\n        /* \"#utility.yul\":5145:5224   */\n      tag_223\n      tag_123\n      jump\t// in\n    tag_223:\n        /* \"#utility.yul\":5104:5226   */\n    tag_222:\n        /* \"#utility.yul\":5262:5268   */\n      dup2\n        /* \"#utility.yul\":5249:5269   */\n      calldataload\n        /* \"#utility.yul\":5287:5366   */\n      tag_224\n        /* \"#utility.yul\":5362:5365   */\n      dup5\n        /* \"#utility.yul\":5354:5360   */\n      dup3\n        /* \"#utility.yul\":5347:5351   */\n      0x20\n        /* \"#utility.yul\":5339:5345   */\n      dup7\n        /* \"#utility.yul\":5335:5352   */\n      add\n        /* \"#utility.yul\":5287:5366   */\n      tag_131\n      jump\t// in\n    tag_224:\n        /* \"#utility.yul\":5278:5366   */\n      swap2\n      pop\n        /* \"#utility.yul\":5094:5372   */\n      pop\n        /* \"#utility.yul\":5032:5372   */\n      swap3\n      swap2\n      pop\n      pop\n      jump\t// out\n        /* \"#utility.yul\":5378:5516   */\n    tag_133:\n        /* \"#utility.yul\":5459:5491   */\n      tag_226\n        /* \"#utility.yul\":5485:5490   */\n      dup2\n        /* \"#utility.yul\":5459:5491   */\n      tag_121\n      jump\t// in\n    tag_226:\n        /* \"#utility.yul\":5452:5457   */\n      dup2\n        /* \"#utility.yul\":5449:5492   */\n      eq\n        /* \"#utility.yul\":5439:5510   */\n      tag_227\n      jumpi\n        /* \"#utility.yul\":5506:5507   */\n      0x00\n        /* \"#utility.yul\":5503:5504   */\n      dup1\n        /* \"#utility.yul\":5496:5508   */\n      revert\n        /* \"#utility.yul\":5439:5510   */\n    tag_227:\n        /* \"#utility.yul\":5378:5516   */\n      pop\n      jump\t// out\n        /* \"#utility.yul\":5522:5677   */\n    tag_134:\n        /* \"#utility.yul\":5576:5581   */\n      0x00\n        /* \"#utility.yul\":5614:5620   */\n      dup2\n        /* \"#utility.yul\":5601:5621   */\n      calldataload\n        /* \"#utility.yul\":5592:5621   */\n      swap1\n      pop\n        /* \"#utility.yul\":5630:5671   */\n      tag_229\n        /* \"#utility.yul\":5665:5670   */\n      dup2\n        /* \"#utility.yul\":5630:5671   */\n      tag_133\n      jump\t// in\n    tag_229:\n        /* \"#utility.yul\":5522:5677   */\n      swap3\n      swap2\n      pop\n      pop\n      jump\t// out\n        /* \"#utility.yul\":5683:6498   */\n    tag_43:\n        /* \"#utility.yul\":5778:5784   */\n      0x00\n        /* \"#utility.yul\":5786:5792   */\n      dup1\n        /* \"#utility.yul\":5794:5800   */\n      0x00\n        /* \"#utility.yul\":5843:5845   */\n      0x60\n        /* \"#utility.yul\":5831:5840   */\n      dup5\n        /* \"#utility.yul\":5822:5829   */\n      dup7\n        /* \"#utility.yul\":5818:5841   */\n      sub\n        /* \"#utility.yul\":5814:5846   */\n      slt\n        /* \"#utility.yul\":5811:5930   */\n      iszero\n      tag_231\n      jumpi\n        /* \"#utility.yul\":5849:5928   */\n      tag_232\n      tag_109\n      jump\t// in\n    tag_232:\n        /* \"#utility.yul\":5811:5930   */\n    tag_231:\n        /* \"#utility.yul\":5997:5998   */\n      0x00\n        /* \"#utility.yul\":5986:5995   */\n      dup5\n        /* \"#utility.yul\":5982:5999   */\n      add\n        /* \"#utility.yul\":5969:6000   */\n      calldataload\n        /* \"#utility.yul\":6027:6045   */\n      0xffffffffffffffff\n        /* \"#utility.yul\":6019:6025   */\n      dup2\n        /* \"#utility.yul\":6016:6046   */\n      gt\n        /* \"#utility.yul\":6013:6130   */\n      iszero\n      tag_233\n      jumpi\n        /* \"#utility.yul\":6049:6128   */\n      tag_234\n      tag_110\n      jump\t// in\n    tag_234:\n        /* \"#utility.yul\":6013:6130   */\n    tag_233:\n        /* \"#utility.yul\":6154:6217   */\n      tag_235\n        /* \"#utility.yul\":6209:6216   */\n      dup7\n        /* \"#utility.yul\":6200:6206   */\n      dup3\n        /* \"#utility.yul\":6189:6198   */\n      dup8\n        /* \"#utility.yul\":6185:6207   */\n      add\n        /* \"#utility.yul\":6154:6217   */\n      tag_132\n      jump\t// in\n    tag_235:\n        /* \"#utility.yul\":6144:6217   */\n      swap4\n      pop\n        /* \"#utility.yul\":5940:6227   */\n      pop\n        /* \"#utility.yul\":6266:6268   */\n      0x20\n        /* \"#utility.yul\":6292:6345   */\n      tag_236\n        /* \"#utility.yul\":6337:6344   */\n      dup7\n        /* \"#utility.yul\":6328:6334   */\n      dup3\n        /* \"#utility.yul\":6317:6326   */\n      dup8\n        /* \"#utility.yul\":6313:6335   */\n      add\n        /* \"#utility.yul\":6292:6345   */\n      tag_113\n      jump\t// in\n    tag_236:\n        /* \"#utility.yul\":6282:6345   */\n      swap3\n      pop\n        /* \"#utility.yul\":6237:6355   */\n      pop\n        /* \"#utility.yul\":6394:6396   */\n      0x40\n        /* \"#utility.yul\":6420:6481   */\n      tag_237\n        /* \"#utility.yul\":6473:6480   */\n      dup7\n        /* \"#utility.yul\":6464:6470   */\n      dup3\n        /* \"#utility.yul\":6453:6462   */\n      dup8\n        /* \"#utility.yul\":6449:6471   */\n      add\n        /* \"#utility.yul\":6420:6481   */\n      tag_134\n      jump\t// in\n    tag_237:\n        /* \"#utility.yul\":6410:6481   */\n      swap2\n      pop\n        /* \"#utility.yul\":6365:6491   */\n      pop\n        /* \"#utility.yul\":5683:6498   */\n      swap3\n      pop\n      swap3\n      pop\n      swap3\n      jump\t// out\n        /* \"#utility.yul\":6504:6622   */\n    tag_135:\n        /* \"#utility.yul\":6591:6615   */\n      tag_239\n        /* \"#utility.yul\":6609:6614   */\n      dup2\n        /* \"#utility.yul\":6591:6615   */\n      tag_115\n      jump\t// in\n    tag_239:\n        /* \"#utility.yul\":6586:6589   */\n      dup3\n        /* \"#utility.yul\":6579:6616   */\n      mstore\n        /* \"#utility.yul\":6504:6622   */\n      pop\n      pop\n      jump\t// out\n        /* \"#utility.yul\":6628:7292   */\n    tag_54:\n        /* \"#utility.yul\":6833:6837   */\n      0x00\n        /* \"#utility.yul\":6871:6874   */\n      0xa0\n        /* \"#utility.yul\":6860:6869   */\n      dup3\n        /* \"#utility.yul\":6856:6875   */\n      add\n        /* \"#utility.yul\":6848:6875   */\n      swap1\n      pop\n        /* \"#utility.yul\":6885:6956   */\n      tag_241\n        /* \"#utility.yul\":6953:6954   */\n      0x00\n        /* \"#utility.yul\":6942:6951   */\n      dup4\n        /* \"#utility.yul\":6938:6955   */\n      add\n        /* \"#utility.yul\":6929:6935   */\n      dup9\n        /* \"#utility.yul\":6885:6956   */\n      tag_120\n      jump\t// in\n    tag_241:\n        /* \"#utility.yul\":6966:7038   */\n      tag_242\n        /* \"#utility.yul\":7034:7036   */\n      0x20\n        /* \"#utility.yul\":7023:7032   */\n      dup4\n        /* \"#utility.yul\":7019:7037   */\n      add\n        /* \"#utility.yul\":7010:7016   */\n      dup8\n        /* \"#utility.yul\":6966:7038   */\n      tag_120\n      jump\t// in\n    tag_242:\n        /* \"#utility.yul\":7048:7120   */\n      tag_243\n        /* \"#utility.yul\":7116:7118   */\n      0x40\n        /* \"#utility.yul\":7105:7114   */\n      dup4\n        /* \"#utility.yul\":7101:7119   */\n      add\n        /* \"#utility.yul\":7092:7098   */\n      dup7\n        /* \"#utility.yul\":7048:7120   */\n      tag_120\n      jump\t// in\n    tag_243:\n        /* \"#utility.yul\":7130:7202   */\n      tag_244\n        /* \"#utility.yul\":7198:7200   */\n      0x60\n        /* \"#utility.yul\":7187:7196   */\n      dup4\n        /* \"#utility.yul\":7183:7201   */\n      add\n        /* \"#utility.yul\":7174:7180   */\n      dup6\n        /* \"#utility.yul\":7130:7202   */\n      tag_120\n      jump\t// in\n    tag_244:\n        /* \"#utility.yul\":7212:7285   */\n      tag_245\n        /* \"#utility.yul\":7280:7283   */\n      0x80\n        /* \"#utility.yul\":7269:7278   */\n      dup4\n        /* \"#utility.yul\":7265:7284   */\n      add\n        /* \"#utility.yul\":7256:7262   */\n      dup5\n        /* \"#utility.yul\":7212:7285   */\n      tag_135\n      jump\t// in\n    tag_245:\n        /* \"#utility.yul\":6628:7292   */\n      swap7\n      swap6\n      pop\n      pop\n      pop\n      pop\n      pop\n      pop\n      jump\t// out\n        /* \"#utility.yul\":7298:7397   */\n    tag_136:\n        /* \"#utility.yul\":7350:7356   */\n      0x00\n        /* \"#utility.yul\":7384:7389   */\n      dup2\n        /* \"#utility.yul\":7378:7390   */\n      mload\n        /* \"#utility.yul\":7368:7390   */\n      swap1\n      pop\n        /* \"#utility.yul\":7298:7397   */\n      swap2\n      swap1\n      pop\n      jump\t// out\n        /* \"#utility.yul\":7403:7572   */\n    tag_137:\n        /* \"#utility.yul\":7487:7498   */\n      0x00\n        /* \"#utility.yul\":7521:7527   */\n      dup3\n        /* \"#utility.yul\":7516:7519   */\n      dup3\n        /* \"#utility.yul\":7509:7528   */\n      mstore\n        /* \"#utility.yul\":7561:7565   */\n      0x20\n        /* \"#utility.yul\":7556:7559   */\n      dup3\n        /* \"#utility.yul\":7552:7566   */\n      add\n        /* \"#utility.yul\":7537:7566   */\n      swap1\n      pop\n        /* \"#utility.yul\":7403:7572   */\n      swap3\n      swap2\n      pop\n      pop\n      jump\t// out\n        /* \"#utility.yul\":7578:7885   */\n    tag_138:\n        /* \"#utility.yul\":7646:7647   */\n      0x00\n        /* \"#utility.yul\":7656:7769   */\n    tag_249:\n        /* \"#utility.yul\":7670:7676   */\n      dup4\n        /* \"#utility.yul\":7667:7668   */\n      dup2\n        /* \"#utility.yul\":7664:7677   */\n      lt\n        /* \"#utility.yul\":7656:7769   */\n      iszero\n      tag_251\n      jumpi\n        /* \"#utility.yul\":7755:7756   */\n      dup1\n        /* \"#utility.yul\":7750:7753   */\n      dup3\n        /* \"#utility.yul\":7746:7757   */\n      add\n        /* \"#utility.yul\":7740:7758   */\n      mload\n        /* \"#utility.yul\":7736:7737   */\n      dup2\n        /* \"#utility.yul\":7731:7734   */\n      dup5\n        /* \"#utility.yul\":7727:7738   */\n      add\n        /* \"#utility.yul\":7720:7759   */\n      mstore\n        /* \"#utility.yul\":7692:7694   */\n      0x20\n        /* \"#utility.yul\":7689:7690   */\n      dup2\n        /* \"#utility.yul\":7685:7695   */\n      add\n        /* \"#utility.yul\":7680:7695   */\n      swap1\n      pop\n        /* \"#utility.yul\":7656:7769   */\n      jump(tag_249)\n    tag_251:\n        /* \"#utility.yul\":7787:7793   */\n      dup4\n        /* \"#utility.yul\":7784:7785   */\n      dup2\n        /* \"#utility.yul\":7781:7794   */\n      gt\n        /* \"#utility.yul\":7778:7879   */\n      iszero\n      tag_252\n      jumpi\n        /* \"#utility.yul\":7867:7868   */\n      0x00\n        /* \"#utility.yul\":7858:7864   */\n      dup5\n        /* \"#utility.yul\":7853:7856   */\n      dup5\n        /* \"#utility.yul\":7849:7865   */\n      add\n        /* \"#utility.yul\":7842:7869   */\n      mstore\n        /* \"#utility.yul\":7778:7879   */\n    tag_252:\n        /* \"#utility.yul\":7627:7885   */\n      pop\n        /* \"#utility.yul\":7578:7885   */\n      pop\n      pop\n      pop\n      jump\t// out\n        /* \"#utility.yul\":7891:8255   */\n    tag_139:\n        /* \"#utility.yul\":7979:7982   */\n      0x00\n        /* \"#utility.yul\":8007:8046   */\n      tag_254\n        /* \"#utility.yul\":8040:8045   */\n      dup3\n        /* \"#utility.yul\":8007:8046   */\n      tag_136\n      jump\t// in\n    tag_254:\n        /* \"#utility.yul\":8062:8133   */\n      tag_255\n        /* \"#utility.yul\":8126:8132   */\n      dup2\n        /* \"#utility.yul\":8121:8124   */\n      dup6\n        /* \"#utility.yul\":8062:8133   */\n      tag_137\n      jump\t// in\n    tag_255:\n        /* \"#utility.yul\":8055:8133   */\n      swap4\n      pop\n        /* \"#utility.yul\":8142:8194   */\n      tag_256\n        /* \"#utility.yul\":8187:8193   */\n      dup2\n        /* \"#utility.yul\":8182:8185   */\n      dup6\n        /* \"#utility.yul\":8175:8179   */\n      0x20\n        /* \"#utility.yul\":8168:8173   */\n      dup7\n        /* \"#utility.yul\":8164:8180   */\n      add\n        /* \"#utility.yul\":8142:8194   */\n      tag_138\n      jump\t// in\n    tag_256:\n        /* \"#utility.yul\":8219:8248   */\n      tag_257\n        /* \"#utility.yul\":8241:8247   */\n      dup2\n        /* \"#utility.yul\":8219:8248   */\n      tag_125\n      jump\t// in\n    tag_257:\n        /* \"#utility.yul\":8214:8217   */\n      dup5\n        /* \"#utility.yul\":8210:8249   */\n      add\n        /* \"#utility.yul\":8203:8249   */\n      swap2\n      pop\n        /* \"#utility.yul\":7983:8255   */\n      pop\n        /* \"#utility.yul\":7891:8255   */\n      swap3\n      swap2\n      pop\n      pop\n      jump\t// out\n        /* \"#utility.yul\":8261:9036   */\n    tag_66:\n        /* \"#utility.yul\":8496:8500   */\n      0x00\n        /* \"#utility.yul\":8534:8537   */\n      0xa0\n        /* \"#utility.yul\":8523:8532   */\n      dup3\n        /* \"#utility.yul\":8519:8538   */\n      add\n        /* \"#utility.yul\":8511:8538   */\n      swap1\n      pop\n        /* \"#utility.yul\":8584:8593   */\n      dup2\n        /* \"#utility.yul\":8578:8582   */\n      dup2\n        /* \"#utility.yul\":8574:8594   */\n      sub\n        /* \"#utility.yul\":8570:8571   */\n      0x00\n        /* \"#utility.yul\":8559:8568   */\n      dup4\n        /* \"#utility.yul\":8555:8572   */\n      add\n        /* \"#utility.yul\":8548:8595   */\n      mstore\n        /* \"#utility.yul\":8612:8690   */\n      tag_259\n        /* \"#utility.yul\":8685:8689   */\n      dup2\n        /* \"#utility.yul\":8676:8682   */\n      dup9\n        /* \"#utility.yul\":8612:8690   */\n      tag_139\n      jump\t// in\n    tag_259:\n        /* \"#utility.yul\":8604:8690   */\n      swap1\n      pop\n        /* \"#utility.yul\":8700:8772   */\n      tag_260\n        /* \"#utility.yul\":8768:8770   */\n      0x20\n        /* \"#utility.yul\":8757:8766   */\n      dup4\n        /* \"#utility.yul\":8753:8771   */\n      add\n        /* \"#utility.yul\":8744:8750   */\n      dup8\n        /* \"#utility.yul\":8700:8772   */\n      tag_120\n      jump\t// in\n    tag_260:\n        /* \"#utility.yul\":8782:8870   */\n      tag_261\n        /* \"#utility.yul\":8866:8868   */\n      0x40\n        /* \"#utility.yul\":8855:8864   */\n      dup4\n        /* \"#utility.yul\":8851:8869   */\n      add\n        /* \"#utility.yul\":8842:8848   */\n      dup7\n        /* \"#utility.yul\":8782:8870   */\n      tag_122\n      jump\t// in\n    tag_261:\n        /* \"#utility.yul\":8880:8946   */\n      tag_262\n        /* \"#utility.yul\":8942:8944   */\n      0x60\n        /* \"#utility.yul\":8931:8940   */\n      dup4\n        /* \"#utility.yul\":8927:8945   */\n      add\n        /* \"#utility.yul\":8918:8924   */\n      dup6\n        /* \"#utility.yul\":8880:8946   */\n      tag_119\n      jump\t// in\n    tag_262:\n        /* \"#utility.yul\":8956:9029   */\n      tag_263\n        /* \"#utility.yul\":9024:9027   */\n      0x80\n        /* \"#utility.yul\":9013:9022   */\n      dup4\n        /* \"#utility.yul\":9009:9028   */\n      add\n        /* \"#utility.yul\":9000:9006   */\n      dup5\n        /* \"#utility.yul\":8956:9029   */\n      tag_120\n      jump\t// in\n    tag_263:\n        /* \"#utility.yul\":8261:9036   */\n      swap7\n      swap6\n      pop\n      pop\n      pop\n      pop\n      pop\n      pop\n      jump\t// out\n        /* \"#utility.yul\":9042:9222   */\n    tag_72:\n        /* \"#utility.yul\":9090:9167   */\n      0x4e487b7100000000000000000000000000000000000000000000000000000000\n        /* \"#utility.yul\":9087:9088   */\n      0x00\n        /* \"#utility.yul\":9080:9168   */\n      mstore\n        /* \"#utility.yul\":9187:9191   */\n      0x32\n        /* \"#utility.yul\":9184:9185   */\n      0x04\n        /* \"#utility.yul\":9177:9192   */\n      mstore\n        /* \"#utility.yul\":9211:9215   */\n      0x24\n        /* \"#utility.yul\":9208:9209   */\n      0x00\n        /* \"#utility.yul\":9201:9216   */\n      revert\n        /* \"#utility.yul\":9228:9408   */\n    tag_140:\n        /* \"#utility.yul\":9276:9353   */\n      0x4e487b7100000000000000000000000000000000000000000000000000000000\n        /* \"#utility.yul\":9273:9274   */\n      0x00\n        /* \"#utility.yul\":9266:9354   */\n      mstore\n        /* \"#utility.yul\":9373:9377   */\n      0x12\n        /* \"#utility.yul\":9370:9371   */\n      0x04\n        /* \"#utility.yul\":9363:9378   */\n      mstore\n        /* \"#utility.yul\":9397:9401   */\n      0x24\n        /* \"#utility.yul\":9394:9395   */\n      0x00\n        /* \"#utility.yul\":9387:9402   */\n      revert\n        /* \"#utility.yul\":9414:9594   */\n    tag_141:\n        /* \"#utility.yul\":9462:9539   */\n      0x4e487b7100000000000000000000000000000000000000000000000000000000\n        /* \"#utility.yul\":9459:9460   */\n      0x00\n        /* \"#utility.yul\":9452:9540   */\n      mstore\n        /* \"#utility.yul\":9559:9563   */\n      0x11\n        /* \"#utility.yul\":9556:9557   */\n      0x04\n        /* \"#utility.yul\":9549:9564   */\n      mstore\n        /* \"#utility.yul\":9583:9587   */\n      0x24\n        /* \"#utility.yul\":9580:9581   */\n      0x00\n        /* \"#utility.yul\":9573:9588   */\n      revert\n        /* \"#utility.yul\":9600:9785   */\n    tag_75:\n        /* \"#utility.yul\":9640:9641   */\n      0x00\n        /* \"#utility.yul\":9657:9677   */\n      tag_268\n        /* \"#utility.yul\":9675:9676   */\n      dup3\n        /* \"#utility.yul\":9657:9677   */\n      tag_111\n      jump\t// in\n    tag_268:\n        /* \"#utility.yul\":9652:9677   */\n      swap2\n      pop\n        /* \"#utility.yul\":9691:9711   */\n      tag_269\n        /* \"#utility.yul\":9709:9710   */\n      dup4\n        /* \"#utility.yul\":9691:9711   */\n      tag_111\n      jump\t// in\n    tag_269:\n        /* \"#utility.yul\":9686:9711   */\n      swap3\n      pop\n        /* \"#utility.yul\":9730:9731   */\n      dup3\n        /* \"#utility.yul\":9720:9755   */\n      tag_270\n      jumpi\n        /* \"#utility.yul\":9735:9753   */\n      tag_271\n      tag_140\n      jump\t// in\n    tag_271:\n        /* \"#utility.yul\":9720:9755   */\n    tag_270:\n        /* \"#utility.yul\":9777:9778   */\n      dup3\n        /* \"#utility.yul\":9774:9775   */\n      dup3\n        /* \"#utility.yul\":9770:9779   */\n      div\n        /* \"#utility.yul\":9765:9779   */\n      swap1\n      pop\n        /* \"#utility.yul\":9600:9785   */\n      swap3\n      swap2\n      pop\n      pop\n      jump\t// out\n        /* \"#utility.yul\":9791:9971   */\n    tag_142:\n        /* \"#utility.yul\":9839:9916   */\n      0x4e487b7100000000000000000000000000000000000000000000000000000000\n        /* \"#utility.yul\":9836:9837   */\n      0x00\n        /* \"#utility.yul\":9829:9917   */\n      mstore\n        /* \"#utility.yul\":9936:9940   */\n      0x22\n        /* \"#utility.yul\":9933:9934   */\n      0x04\n        /* \"#utility.yul\":9926:9941   */\n      mstore\n        /* \"#utility.yul\":9960:9964   */\n      0x24\n        /* \"#utility.yul\":9957:9958   */\n      0x00\n        /* \"#utility.yul\":9950:9965   */\n      revert\n        /* \"#utility.yul\":9977:10297   */\n    tag_103:\n        /* \"#utility.yul\":10021:10027   */\n      0x00\n        /* \"#utility.yul\":10058:10059   */\n      0x02\n        /* \"#utility.yul\":10052:10056   */\n      dup3\n        /* \"#utility.yul\":10048:10060   */\n      div\n        /* \"#utility.yul\":10038:10060   */\n      swap1\n      pop\n        /* \"#utility.yul\":10105:10106   */\n      0x01\n        /* \"#utility.yul\":10099:10103   */\n      dup3\n        /* \"#utility.yul\":10095:10107   */\n      and\n        /* \"#utility.yul\":10126:10144   */\n      dup1\n        /* \"#utility.yul\":10116:10197   */\n      tag_274\n      jumpi\n        /* \"#utility.yul\":10182:10186   */\n      0x7f\n        /* \"#utility.yul\":10174:10180   */\n      dup3\n        /* \"#utility.yul\":10170:10187   */\n      and\n        /* \"#utility.yul\":10160:10187   */\n      swap2\n      pop\n        /* \"#utility.yul\":10116:10197   */\n    tag_274:\n        /* \"#utility.yul\":10244:10246   */\n      0x20\n        /* \"#utility.yul\":10236:10242   */\n      dup3\n        /* \"#utility.yul\":10233:10247   */\n      lt\n        /* \"#utility.yul\":10213:10231   */\n      dup2\n        /* \"#utility.yul\":10210:10248   */\n      sub\n        /* \"#utility.yul\":10207:10291   */\n      tag_275\n      jumpi\n        /* \"#utility.yul\":10263:10281   */\n      tag_276\n      tag_142\n      jump\t// in\n    tag_276:\n        /* \"#utility.yul\":10207:10291   */\n    tag_275:\n        /* \"#utility.yul\":10028:10297   */\n      pop\n        /* \"#utility.yul\":9977:10297   */\n      swap2\n      swap1\n      pop\n      jump\t// out\n        /* \"#utility.yul\":10303:10444   */\n    tag_143:\n        /* \"#utility.yul\":10352:10356   */\n      0x00\n        /* \"#utility.yul\":10375:10378   */\n      dup2\n        /* \"#utility.yul\":10367:10378   */\n      swap1\n      pop\n        /* \"#utility.yul\":10398:10401   */\n      dup2\n        /* \"#utility.yul\":10395:10396   */\n      0x00\n        /* \"#utility.yul\":10388:10402   */\n      mstore\n        /* \"#utility.yul\":10432:10436   */\n      0x20\n        /* \"#utility.yul\":10429:10430   */\n      0x00\n        /* \"#utility.yul\":10419:10437   */\n      keccak256\n        /* \"#utility.yul\":10411:10437   */\n      swap1\n      pop\n        /* \"#utility.yul\":10303:10444   */\n      swap2\n      swap1\n      pop\n      jump\t// out\n        /* \"#utility.yul\":10450:10543   */\n    tag_144:\n        /* \"#utility.yul\":10487:10493   */\n      0x00\n        /* \"#utility.yul\":10534:10536   */\n      0x20\n        /* \"#utility.yul\":10529:10531   */\n      0x1f\n        /* \"#utility.yul\":10522:10527   */\n      dup4\n        /* \"#utility.yul\":10518:10532   */\n      add\n        /* \"#utility.yul\":10514:10537   */\n      div\n        /* \"#utility.yul\":10504:10537   */\n      swap1\n      pop\n        /* \"#utility.yul\":10450:10543   */\n      swap2\n      swap1\n      pop\n      jump\t// out\n        /* \"#utility.yul\":10549:10656   */\n    tag_145:\n        /* \"#utility.yul\":10593:10601   */\n      0x00\n        /* \"#utility.yul\":10643:10648   */\n      dup3\n        /* \"#utility.yul\":10637:10641   */\n      dup3\n        /* \"#utility.yul\":10633:10649   */\n      shl\n        /* \"#utility.yul\":10612:10649   */\n      swap1\n      pop\n        /* \"#utility.yul\":10549:10656   */\n      swap3\n      swap2\n      pop\n      pop\n      jump\t// out\n        /* \"#utility.yul\":10662:11055   */\n    tag_146:\n        /* \"#utility.yul\":10731:10737   */\n      0x00\n        /* \"#utility.yul\":10781:10782   */\n      0x08\n        /* \"#utility.yul\":10769:10779   */\n      dup4\n        /* \"#utility.yul\":10765:10783   */\n      mul\n        /* \"#utility.yul\":10804:10901   */\n      tag_281\n        /* \"#utility.yul\":10834:10900   */\n      0xffffffffffffffffffffffffffffffffffffffffffffffffffffffffffffffff\n        /* \"#utility.yul\":10823:10832   */\n      dup3\n        /* \"#utility.yul\":10804:10901   */\n      tag_145\n      jump\t// in\n    tag_281:\n        /* \"#utility.yul\":10922:10961   */\n      tag_282\n        /* \"#utility.yul\":10952:10960   */\n      dup7\n        /* \"#utility.yul\":10941:10950   */\n      dup4\n        /* \"#utility.yul\":10922:10961   */\n      tag_145\n      jump\t// in\n    tag_282:\n        /* \"#utility.yul\":10910:10961   */\n      swap6\n      pop\n        /* \"#utility.yul\":10994:10998   */\n      dup1\n        /* \"#utility.yul\":10990:10999   */\n      not\n        /* \"#utility.yul\":10983:10988   */\n      dup5\n        /* \"#utility.yul\":10979:11000   */\n      and\n        /* \"#utility.yul\":10970:11000   */\n      swap4\n      pop\n        /* \"#utility.yul\":11043:11047   */\n      dup1\n        /* \"#utility.yul\":11033:11041   */\n      dup7\n        /* \"#utility.yul\":11029:11048   */\n      and\n        /* \"#utility.yul\":11022:11027   */\n      dup5\n        /* \"#utility.yul\":11019:11049   */\n      or\n        /* \"#utility.yul\":11009:11049   */\n      swap3\n      pop\n        /* \"#utility.yul\":10738:11055   */\n      pop\n      pop\n        /* \"#utility.yul\":10662:11055   */\n      swap4\n      swap3\n      pop\n      pop\n      pop\n      jump\t// out\n        /* \"#utility.yul\":11061:11121   */\n    tag_147:\n        /* \"#utility.yul\":11089:11092   */\n      0x00\n        /* \"#utility.yul\":11110:11115   */\n      dup2\n        /* \"#utility.yul\":11103:11115   */\n      swap1\n      pop\n        /* \"#utility.yul\":11061:11121   */\n      swap2\n      swap1\n      pop\n      jump\t// out\n        /* \"#utility.yul\":11127:11269   */\n    tag_148:\n        /* \"#utility.yul\":11177:11186   */\n      0x00\n        /* \"#utility.yul\":11210:11263   */\n      tag_285\n        /* \"#utility.yul\":11228:11262   */\n      tag_286\n        /* \"#utility.yul\":11237:11261   */\n      tag_287\n        /* \"#utility.yul\":11255:11260   */\n      dup5\n        /* \"#utility.yul\":11237:11261   */\n      tag_111\n      jump\t// in\n    tag_287:\n        /* \"#utility.yul\":11228:11262   */\n      tag_147\n      jump\t// in\n    tag_286:\n        /* \"#utility.yul\":11210:11263   */\n      tag_111\n      jump\t// in\n    tag_285:\n        /* \"#utility.yul\":11197:11263   */\n      swap1\n      pop\n        /* \"#utility.yul\":11127:11269   */\n      swap2\n      swap1\n      pop\n      jump\t// out\n        /* \"#utility.yul\":11275:11350   */\n    tag_149:\n        /* \"#utility.yul\":11318:11321   */\n      0x00\n        /* \"#utility.yul\":11339:11344   */\n      dup2\n        /* \"#utility.yul\":11332:11344   */\n      swap1\n      pop\n        /* \"#utility.yul\":11275:11350   */\n      swap2\n      swap1\n      pop\n      jump\t// out\n        /* \"#utility.yul\":11356:11625   */\n    tag_150:\n        /* \"#utility.yul\":11466:11505   */\n      tag_290\n        /* \"#utility.yul\":11497:11504   */\n      dup4\n        /* \"#utility.yul\":11466:11505   */\n      tag_148\n      jump\t// in\n    tag_290:\n        /* \"#utility.yul\":11527:11618   */\n      tag_291\n        /* \"#utility.yul\":11576:11617   */\n      tag_292\n        /* \"#utility.yul\":11600:11616   */\n      dup3\n        /* \"#utility.yul\":11576:11617   */\n      tag_149\n      jump\t// in\n    tag_292:\n        /* \"#utility.yul\":11568:11574   */\n      dup5\n        /* \"#utility.yul\":11561:11565   */\n      dup5\n        /* \"#utility.yul\":11555:11566   */\n      sload\n        /* \"#utility.yul\":11527:11618   */\n      tag_146\n      jump\t// in\n    tag_291:\n        /* \"#utility.yul\":11521:11525   */\n      dup3\n        /* \"#utility.yul\":11514:11619   */\n      sstore\n        /* \"#utility.yul\":11432:11625   */\n      pop\n        /* \"#utility.yul\":11356:11625   */\n      pop\n      pop\n      pop\n      jump\t// out\n        /* \"#utility.yul\":11631:11704   */\n    tag_151:\n        /* \"#utility.yul\":11676:11679   */\n      0x00\n        /* \"#utility.yul\":11631:11704   */\n      swap1\n      jump\t// out\n        /* \"#utility.yul\":11710:11899   */\n    tag_152:\n        /* \"#utility.yul\":11787:11819   */\n      tag_295\n      tag_151\n      jump\t// in\n    tag_295:\n        /* \"#utility.yul\":11828:11893   */\n      tag_296\n        /* \"#utility.yul\":11886:11892   */\n      dup2\n        /* \"#utility.yul\":11878:11884   */\n      dup5\n        /* \"#utility.yul\":11872:11876   */\n      dup5\n        /* \"#utility.yul\":11828:11893   */\n      tag_150\n      jump\t// in\n    tag_296:\n        /* \"#utility.yul\":11763:11899   */\n      pop\n        /* \"#utility.yul\":11710:11899   */\n      pop\n      pop\n      jump\t// out\n        /* \"#utility.yul\":11905:12091   */\n    tag_153:\n        /* \"#utility.yul\":11965:12085   */\n    tag_298:\n        /* \"#utility.yul\":11982:11985   */\n      dup2\n        /* \"#utility.yul\":11975:11980   */\n      dup2\n        /* \"#utility.yul\":11972:11986   */\n      lt\n        /* \"#utility.yul\":11965:12085   */\n      iszero\n      tag_300\n      jumpi\n        /* \"#utility.yul\":12036:12075   */\n      tag_301\n        /* \"#utility.yul\":12073:12074   */\n      0x00\n        /* \"#utility.yul\":12066:12071   */\n      dup3\n        /* \"#utility.yul\":12036:12075   */\n      tag_152\n      jump\t// in\n    tag_301:\n        /* \"#utility.yul\":12009:12010   */\n      0x01\n        /* \"#utility.yul\":12002:12007   */\n      dup2\n        /* \"#utility.yul\":11998:12011   */\n      add\n        /* \"#utility.yul\":11989:12011   */\n      swap1\n      pop\n        /* \"#utility.yul\":11965:12085   */\n      jump(tag_298)\n    tag_300:\n        /* \"#utility.yul\":11905:12091   */\n      pop\n      pop\n      jump\t// out\n        /* \"#utility.yul\":12097:12640   */\n    tag_154:\n        /* \"#utility.yul\":12198:12200   */\n      0x1f\n        /* \"#utility.yul\":12193:12196   */\n      dup3\n        /* \"#utility.yul\":12190:12201   */\n      gt\n        /* \"#utility.yul\":12187:12633   */\n      iszero\n      tag_303\n      jumpi\n        /* \"#utility.yul\":12232:12270   */\n      tag_304\n        /* \"#utility.yul\":12264:12269   */\n      dup2\n        /* \"#utility.yul\":12232:12270   */\n      tag_143\n      jump\t// in\n    tag_304:\n        /* \"#utility.yul\":12316:12345   */\n      tag_305\n        /* \"#utility.yul\":12334:12344   */\n      dup5\n        /* \"#utility.yul\":12316:12345   */\n      tag_144\n      jump\t// in\n    tag_305:\n        /* \"#utility.yul\":12306:12314   */\n      dup2\n        /* \"#utility.yul\":12302:12346   */\n      add\n        /* \"#utility.yul\":12499:12501   */\n      0x20\n        /* \"#utility.yul\":12487:12497   */\n      dup6\n        /* \"#utility.yul\":12484:12502   */\n      lt\n        /* \"#utility.yul\":12481:12530   */\n      iszero\n      tag_306\n      jumpi\n        /* \"#utility.yul\":12520:12528   */\n      dup2\n        /* \"#utility.yul\":12505:12528   */\n      swap1\n      pop\n        /* \"#utility.yul\":12481:12530   */\n    tag_306:\n        /* \"#utility.yul\":12543:12623   */\n      tag_307\n        /* \"#utility.yul\":12599:12621   */\n      tag_308\n        /* \"#utility.yul\":12617:12620   */\n      dup6\n        /* \"#utility.yul\":12599:12621   */\n      tag_144\n      jump\t// in\n    tag_308:\n        /* \"#utility.yul\":12589:12597   */\n      dup4\n        /* \"#utility.yul\":12585:12622   */\n      add\n        /* \"#utility.yul\":12572:12583   */\n      dup3\n        /* \"#utility.yul\":12543:12623   */\n      tag_153\n      jump\t// in\n    tag_307:\n        /* \"#utility.yul\":12202:12633   */\n      pop\n      pop\n        /* \"#utility.yul\":12187:12633   */\n    tag_303:\n        /* \"#utility.yul\":12097:12640   */\n      pop\n      pop\n      pop\n      jump\t// out\n        /* \"#utility.yul\":12646:12763   */\n    tag_155:\n        /* \"#utility.yul\":12700:12708   */\n      0x00\n        /* \"#utility.yul\":12750:12755   */\n      dup3\n        /* \"#utility.yul\":12744:12748   */\n      dup3\n        /* \"#utility.yul\":12740:12756   */\n      shr\n        /* \"#utility.yul\":12719:12756   */\n      swap1\n      pop\n        /* \"#utility.yul\":12646:12763   */\n      swap3\n      swap2\n      pop\n      pop\n      jump\t// out\n        /* \"#utility.yul\":12769:12938   */\n    tag_156:\n        /* \"#utility.yul\":12813:12819   */\n      0x00\n        /* \"#utility.yul\":12846:12897   */\n      tag_311\n        /* \"#utility.yul\":12894:12895   */\n      0x00\n        /* \"#utility.yul\":12890:12896   */\n      not\n        /* \"#utility.yul\":12882:12887   */\n      dup5\n        /* \"#utility.yul\":12879:12880   */\n      0x08\n        /* \"#utility.yul\":12875:12888   */\n      mul\n        /* \"#utility.yul\":12846:12897   */\n      tag_155\n      jump\t// in\n    tag_311:\n        /* \"#utility.yul\":12842:12898   */\n      not\n        /* \"#utility.yul\":12927:12931   */\n      dup1\n        /* \"#utility.yul\":12921:12925   */\n      dup4\n        /* \"#utility.yul\":12917:12932   */\n      and\n        /* \"#utility.yul\":12907:12932   */\n      swap2\n      pop\n        /* \"#utility.yul\":12820:12938   */\n      pop\n        /* \"#utility.yul\":12769:12938   */\n      swap3\n      swap2\n      pop\n      pop\n      jump\t// out\n        /* \"#utility.yul\":12943:13238   */\n    tag_157:\n        /* \"#utility.yul\":13019:13023   */\n      0x00\n        /* \"#utility.yul\":13165:13194   */\n      tag_313\n        /* \"#utility.yul\":13190:13193   */\n      dup4\n        /* \"#utility.yul\":13184:13188   */\n      dup4\n        /* \"#utility.yul\":13165:13194   */\n      tag_156\n      jump\t// in\n    tag_313:\n        /* \"#utility.yul\":13157:13194   */\n      swap2\n      pop\n        /* \"#utility.yul\":13227:13230   */\n      dup3\n        /* \"#utility.yul\":13224:13225   */\n      0x02\n        /* \"#utility.yul\":13220:13231   */\n      mul\n        /* \"#utility.yul\":13214:13218   */\n      dup3\n        /* \"#utility.yul\":13211:13232   */\n      or\n        /* \"#utility.yul\":13203:13232   */\n      swap1\n      pop\n        /* \"#utility.yul\":12943:13238   */\n      swap3\n      swap2\n      pop\n      pop\n      jump\t// out\n        /* \"#utility.yul\":13243:14638   */\n    tag_86:\n        /* \"#utility.yul\":13360:13397   */\n      tag_315\n        /* \"#utility.yul\":13393:13396   */\n      dup3\n        /* \"#utility.yul\":13360:13397   */\n      tag_136\n      jump\t// in\n    tag_315:\n        /* \"#utility.yul\":13462:13480   */\n      0xffffffffffffffff\n        /* \"#utility.yul\":13454:13460   */\n      dup2\n        /* \"#utility.yul\":13451:13481   */\n      gt\n        /* \"#utility.yul\":13448:13504   */\n      iszero\n      tag_316\n      jumpi\n        /* \"#utility.yul\":13484:13502   */\n      tag_317\n      tag_126\n      jump\t// in\n    tag_317:\n        /* \"#utility.yul\":13448:13504   */\n    tag_316:\n        /* \"#utility.yul\":13528:13566   */\n      tag_318\n        /* \"#utility.yul\":13560:13564   */\n      dup3\n        /* \"#utility.yul\":13554:13565   */\n      sload\n        /* \"#utility.yul\":13528:13566   */\n      tag_103\n      jump\t// in\n    tag_318:\n        /* \"#utility.yul\":13613:13680   */\n      tag_319\n        /* \"#utility.yul\":13673:13679   */\n      dup3\n        /* \"#utility.yul\":13665:13671   */\n      dup3\n        /* \"#utility.yul\":13659:13663   */\n      dup6\n        /* \"#utility.yul\":13613:13680   */\n      tag_154\n      jump\t// in\n    tag_319:\n        /* \"#utility.yul\":13707:13708   */\n      0x00\n        /* \"#utility.yul\":13731:13735   */\n      0x20\n        /* \"#utility.yul\":13718:13735   */\n      swap1\n      pop\n        /* \"#utility.yul\":13763:13765   */\n      0x1f\n        /* \"#utility.yul\":13755:13761   */\n      dup4\n        /* \"#utility.yul\":13752:13766   */\n      gt\n        /* \"#utility.yul\":13780:13781   */\n      0x01\n        /* \"#utility.yul\":13775:14393   */\n      dup2\n      eq\n      tag_321\n      jumpi\n        /* \"#utility.yul\":14437:14438   */\n      0x00\n        /* \"#utility.yul\":14454:14460   */\n      dup5\n        /* \"#utility.yul\":14451:14528   */\n      iszero\n      tag_322\n      jumpi\n        /* \"#utility.yul\":14503:14512   */\n      dup3\n        /* \"#utility.yul\":14498:14501   */\n      dup8\n        /* \"#utility.yul\":14494:14513   */\n      add\n        /* \"#utility.yul\":14488:14514   */\n      mload\n        /* \"#utility.yul\":14479:14514   */\n      swap1\n      pop\n        /* \"#utility.yul\":14451:14528   */\n    tag_322:\n        /* \"#utility.yul\":14554:14621   */\n      tag_323\n        /* \"#utility.yul\":14614:14620   */\n      dup6\n        /* \"#utility.yul\":14607:14612   */\n      dup3\n        /* \"#utility.yul\":14554:14621   */\n      tag_157\n      jump\t// in\n    tag_323:\n        /* \"#utility.yul\":14548:14552   */\n      dup7\n        /* \"#utility.yul\":14541:14622   */\n      sstore\n        /* \"#utility.yul\":14410:14632   */\n      pop\n        /* \"#utility.yul\":13745:14632   */\n      jump(tag_320)\n        /* \"#utility.yul\":13775:14393   */\n    tag_321:\n        /* \"#utility.yul\":13827:13831   */\n      0x1f\n        /* \"#utility.yul\":13823:13832   */\n      not\n        /* \"#utility.yul\":13815:13821   */\n      dup5\n        /* \"#utility.yul\":13811:13833   */\n      and\n        /* \"#utility.yul\":13861:13898   */\n      tag_324\n        /* \"#utility.yul\":13893:13897   */\n      dup7\n        /* \"#utility.yul\":13861:13898   */\n      tag_143\n      jump\t// in\n    tag_324:\n        /* \"#utility.yul\":13920:13921   */\n      0x00\n        /* \"#utility.yul\":13934:14142   */\n    tag_325:\n        /* \"#utility.yul\":13948:13955   */\n      dup3\n        /* \"#utility.yul\":13945:13946   */\n      dup2\n        /* \"#utility.yul\":13942:13956   */\n      lt\n        /* \"#utility.yul\":13934:14142   */\n      iszero\n      tag_327\n      jumpi\n        /* \"#utility.yul\":14027:14036   */\n      dup5\n        /* \"#utility.yul\":14022:14025   */\n      dup10\n        /* \"#utility.yul\":14018:14037   */\n      add\n        /* \"#utility.yul\":14012:14038   */\n      mload\n        /* \"#utility.yul\":14004:14010   */\n      dup3\n        /* \"#utility.yul\":13997:14039   */\n      sstore\n        /* \"#utility.yul\":14078:14079   */\n      0x01\n        /* \"#utility.yul\":14070:14076   */\n      dup3\n        /* \"#utility.yul\":14066:14080   */\n      add\n        /* \"#utility.yul\":14056:14080   */\n      swap2\n      pop\n        /* \"#utility.yul\":14125:14127   */\n      0x20\n        /* \"#utility.yul\":14114:14123   */\n      dup6\n        /* \"#utility.yul\":14110:14128   */\n      add\n        /* \"#utility.yul\":14097:14128   */\n      swap5\n      pop\n        /* \"#utility.yul\":13971:13975   */\n      0x20\n        /* \"#utility.yul\":13968:13969   */\n      dup2\n        /* \"#utility.yul\":13964:13976   */\n      add\n        /* \"#utility.yul\":13959:13976   */\n      swap1\n      pop\n        /* \"#utility.yul\":13934:14142   */\n      jump(tag_325)\n    tag_327:\n        /* \"#utility.yul\":14170:14176   */\n      dup7\n        /* \"#utility.yul\":14161:14168   */\n      dup4\n        /* \"#utility.yul\":14158:14177   */\n      lt\n        /* \"#utility.yul\":14155:14334   */\n      iszero\n      tag_328\n      jumpi\n        /* \"#utility.yul\":14228:14237   */\n      dup5\n        /* \"#utility.yul\":14223:14226   */\n      dup10\n        /* \"#utility.yul\":14219:14238   */\n      add\n        /* \"#utility.yul\":14213:14239   */\n      mload\n        /* \"#utility.yul\":14271:14319   */\n      tag_329\n        /* \"#utility.yul\":14313:14317   */\n      0x1f\n        /* \"#utility.yul\":14305:14311   */\n      dup10\n        /* \"#utility.yul\":14301:14318   */\n      and\n        /* \"#utility.yul\":14290:14299   */\n      dup3\n        /* \"#utility.yul\":14271:14319   */\n      tag_156\n      jump\t// in\n    tag_329:\n        /* \"#utility.yul\":14263:14269   */\n      dup4\n        /* \"#utility.yul\":14256:14320   */\n      sstore\n        /* \"#utility.yul\":14178:14334   */\n      pop\n        /* \"#utility.yul\":14155:14334   */\n    tag_328:\n        /* \"#utility.yul\":14380:14381   */\n      0x01\n        /* \"#utility.yul\":14376:14377   */\n      0x02\n        /* \"#utility.yul\":14368:14374   */\n      dup9\n        /* \"#utility.yul\":14364:14378   */\n      mul\n        /* \"#utility.yul\":14360:14382   */\n      add\n        /* \"#utility.yul\":14354:14358   */\n      dup9\n        /* \"#utility.yul\":14347:14383   */\n      sstore\n        /* \"#utility.yul\":13782:14393   */\n      pop\n      pop\n      pop\n        /* \"#utility.yul\":13745:14632   */\n    tag_320:\n      pop\n        /* \"#utility.yul\":13335:14638   */\n      pop\n      pop\n      pop\n        /* \"#utility.yul\":13243:14638   */\n      pop\n      pop\n      jump\t// out\n        /* \"#utility.yul\":14644:14877   */\n    tag_92:\n        /* \"#utility.yul\":14683:14686   */\n      0x00\n        /* \"#utility.yul\":14706:14730   */\n      tag_331\n        /* \"#utility.yul\":14724:14729   */\n      dup3\n        /* \"#utility.yul\":14706:14730   */\n      tag_111\n      jump\t// in\n    tag_331:\n        /* \"#utility.yul\":14697:14730   */\n      swap2\n      pop\n        /* \"#utility.yul\":14752:14818   */\n      0xffffffffffffffffffffffffffffffffffffffffffffffffffffffffffffffff\n        /* \"#utility.yul\":14745:14750   */\n      dup3\n        /* \"#utility.yul\":14742:14819   */\n      sub\n        /* \"#utility.yul\":14739:14842   */\n      tag_332\n      jumpi\n        /* \"#utility.yul\":14822:14840   */\n      tag_333\n      tag_141\n      jump\t// in\n    tag_333:\n        /* \"#utility.yul\":14739:14842   */\n    tag_332:\n        /* \"#utility.yul\":14869:14870   */\n      0x01\n        /* \"#utility.yul\":14862:14867   */\n      dup3\n        /* \"#utility.yul\":14858:14871   */\n      add\n        /* \"#utility.yul\":14851:14871   */\n      swap1\n      pop\n        /* \"#utility.yul\":14644:14877   */\n      swap2\n      swap1\n      pop\n      jump\t// out\n\n    auxdata: 0xa264697066735822122077d6bc88f60663622e75de2991c5ccb2411ed462222be4302132e765ae2fbfc464736f6c634300080f0033\n}\n","bytecode":{"linkReferences":{},"object":"608060405260006002553480156200001657600080fd5b50604051620012b1380380620012b183398181016040528101906200003c919062000130565b806000806101000a81548173ffffffffffffffffffffffffffffffffffffffff021916908373ffffffffffffffffffffffffffffffffffffffff16021790555081600181905550505062000177565b600080fd5b6000819050919050565b620000a58162000090565b8114620000b157600080fd5b50565b600081519050620000c5816200009a565b92915050565b600073ffffffffffffffffffffffffffffffffffffffff82169050919050565b6000620000f882620000cb565b9050919050565b6200010a81620000eb565b81146200011657600080fd5b50565b6000815190506200012a81620000ff565b92915050565b600080604083850312156200014a57620001496200008b565b5b60006200015a85828601620000b4565b92505060206200016d8582860162000119565b9150509250929050565b61112a80620001876000396000f3fe60806040526004361061009c5760003560e01c80638a9cfd55116100645780638a9cfd5514610188578063aaffadf3146101b1578063aee14460146101dc578063d7bb99ba1461021d578063d7d1bbdb14610227578063d845a4b3146102505761009c565b806303441006146100a15780630a144391146100ca5780633410452a14610107578063481c6a751461013257806382fde0931461015d575b600080fd5b3480156100ad57600080fd5b506100c860048036038101906100c39190610897565b610291565b005b3480156100d657600080fd5b506100f160048036038101906100ec9190610922565b6103d8565b6040516100fe919061096a565b60405180910390f35b34801561011357600080fd5b5061011c6103f8565b6040516101299190610994565b60405180910390f35b34801561013e57600080fd5b50610147610405565b60405161015491906109d0565b60405180910390f35b34801561016957600080fd5b50610172610429565b60405161017f9190610994565b60405180910390f35b34801561019457600080fd5b506101af60048036038101906101aa9190610b5d565b61042f565b005b3480156101bd57600080fd5b506101c6610536565b6040516101d39190610994565b60405180910390f35b3480156101e857600080fd5b5061020360048036038101906101fe9190610897565b61053c565b604051610214959493929190610bdb565b60405180910390f35b610225610585565b005b34801561023357600080fd5b5061024e60048036038101906102499190610897565b610605565b005b34801561025c57600080fd5b5061027760048036038101906102729190610897565b610752565b604051610288959493929190610cb6565b60405180910390f35b60008054906101000a900473ffffffffffffffffffffffffffffffffffffffff1673ffffffffffffffffffffffffffffffffffffffff163373ffffffffffffffffffffffffffffffffffffffff16146102e957600080fd5b6000600482815481106102ff576102fe610d10565b5b906000526020600020906005020190506002805461031d9190610d9d565b81600301541161032c57600080fd5b8060020160149054906101000a900460ff161561034857600080fd5b60018160020160146101000a81548160ff0219169083151502179055508060020160009054906101000a900473ffffffffffffffffffffffffffffffffffffffff1673ffffffffffffffffffffffffffffffffffffffff166108fc82600101549081150290604051600060405180830381858888f193505050501580156103d3573d6000803e3d6000fd5b505050565b60036020528060005260406000206000915054906101000a900460ff1681565b6000600480549050905090565b60008054906101000a900473ffffffffffffffffffffffffffffffffffffffff1681565b60025481565b60008054906101000a900473ffffffffffffffffffffffffffffffffffffffff1673ffffffffffffffffffffffffffffffffffffffff163373ffffffffffffffffffffffffffffffffffffffff161461048757600080fd5b600060046001816001815401808255809150500390600052602060002090600502019050838160000190816104bc9190610fda565b50828160010181905550818160020160006101000a81548173ffffffffffffffffffffffffffffffffffffffff021916908373ffffffffffffffffffffffffffffffffffffffff16021790555060008160020160146101000a81548160ff0219169083151502179055506000816003018190555050505050565b60015481565b60008060008060004760048054905060015460025460008054906101000a900473ffffffffffffffffffffffffffffffffffffffff169450945094509450945091939590929450565b600154341161059357600080fd5b6001600360003373ffffffffffffffffffffffffffffffffffffffff1673ffffffffffffffffffffffffffffffffffffffff16815260200190815260200160002060006101000a81548160ff021916908315150217905550600260008154809291906105fe906110ac565b9190505550565b60006004828154811061061b5761061a610d10565b5b90600052602060002090600502019050600360003373ffffffffffffffffffffffffffffffffffffffff1673ffffffffffffffffffffffffffffffffffffffff16815260200190815260200160002060009054906101000a900460ff1661068157600080fd5b8060040160003373ffffffffffffffffffffffffffffffffffffffff1673ffffffffffffffffffffffffffffffffffffffff16815260200190815260200160002060009054906101000a900460ff16156106da57600080fd5b60018160040160003373ffffffffffffffffffffffffffffffffffffffff1673ffffffffffffffffffffffffffffffffffffffff16815260200190815260200160002060006101000a81548160ff021916908315150217905550806003016000815480929190610749906110ac565b91905055505050565b6004818154811061076257600080fd5b906000526020600020906005020160009150905080600001805461078590610dfd565b80601f01602080910402602001604051908101604052809291908181526020018280546107b190610dfd565b80156107fe5780601f106107d3576101008083540402835291602001916107fe565b820191906000526020600020905b8154815290600101906020018083116107e157829003601f168201915b5050505050908060010154908060020160009054906101000a900473ffffffffffffffffffffffffffffffffffffffff16908060020160149054906101000a900460ff16908060030154905085565b6000604051905090565b600080fd5b600080fd5b6000819050919050565b61087481610861565b811461087f57600080fd5b50565b6000813590506108918161086b565b92915050565b6000602082840312156108ad576108ac610857565b5b60006108bb84828501610882565b91505092915050565b600073ffffffffffffffffffffffffffffffffffffffff82169050919050565b60006108ef826108c4565b9050919050565b6108ff816108e4565b811461090a57600080fd5b50565b60008135905061091c816108f6565b92915050565b60006020828403121561093857610937610857565b5b60006109468482850161090d565b91505092915050565b60008115159050919050565b6109648161094f565b82525050565b600060208201905061097f600083018461095b565b92915050565b61098e81610861565b82525050565b60006020820190506109a96000830184610985565b92915050565b60006109ba826108c4565b9050919050565b6109ca816109af565b82525050565b60006020820190506109e560008301846109c1565b92915050565b600080fd5b600080fd5b6000601f19601f8301169050919050565b7f4e487b7100000000000000000000000000000000000000000000000000000000600052604160045260246000fd5b610a3e826109f5565b810181811067ffffffffffffffff82111715610a5d57610a5c610a06565b5b80604052505050565b6000610a7061084d565b9050610a7c8282610a35565b919050565b600067ffffffffffffffff821115610a9c57610a9b610a06565b5b610aa5826109f5565b9050602081019050919050565b82818337600083830152505050565b6000610ad4610acf84610a81565b610a66565b905082815260208101848484011115610af057610aef6109f0565b5b610afb848285610ab2565b509392505050565b600082601f830112610b1857610b176109eb565b5b8135610b28848260208601610ac1565b91505092915050565b610b3a816109af565b8114610b4557600080fd5b50565b600081359050610b5781610b31565b92915050565b600080600060608486031215610b7657610b75610857565b5b600084013567ffffffffffffffff811115610b9457610b9361085c565b5b610ba086828701610b03565b9350506020610bb186828701610882565b9250506040610bc286828701610b48565b9150509250925092565b610bd5816108e4565b82525050565b600060a082019050610bf06000830188610985565b610bfd6020830187610985565b610c0a6040830186610985565b610c176060830185610985565b610c246080830184610bcc565b9695505050505050565b600081519050919050565b600082825260208201905092915050565b60005b83811015610c68578082015181840152602081019050610c4d565b83811115610c77576000848401525b50505050565b6000610c8882610c2e565b610c928185610c39565b9350610ca2818560208601610c4a565b610cab816109f5565b840191505092915050565b600060a0820190508181036000830152610cd08188610c7d565b9050610cdf6020830187610985565b610cec60408301866109c1565b610cf9606083018561095b565b610d066080830184610985565b9695505050505050565b7f4e487b7100000000000000000000000000000000000000000000000000000000600052603260045260246000fd5b7f4e487b7100000000000000000000000000000000000000000000000000000000600052601260045260246000fd5b7f4e487b7100000000000000000000000000000000000000000000000000000000600052601160045260246000fd5b6000610da882610861565b9150610db383610861565b925082610dc357610dc2610d3f565b5b828204905092915050565b7f4e487b7100000000000000000000000000000000000000000000000000000000600052602260045260246000fd5b60006002820490506001821680610e1557607f821691505b602082108103610e2857610e27610dce565b5b50919050565b60008190508160005260206000209050919050565b60006020601f8301049050919050565b600082821b905092915050565b600060088302610e907fffffffffffffffffffffffffffffffffffffffffffffffffffffffffffffffff82610e53565b610e9a8683610e53565b95508019841693508086168417925050509392505050565b6000819050919050565b6000610ed7610ed2610ecd84610861565b610eb2565b610861565b9050919050565b6000819050919050565b610ef183610ebc565b610f05610efd82610ede565b848454610e60565b825550505050565b600090565b610f1a610f0d565b610f25818484610ee8565b505050565b5b81811015610f4957610f3e600082610f12565b600181019050610f2b565b5050565b601f821115610f8e57610f5f81610e2e565b610f6884610e43565b81016020851015610f77578190505b610f8b610f8385610e43565b830182610f2a565b50505b505050565b600082821c905092915050565b6000610fb160001984600802610f93565b1980831691505092915050565b6000610fca8383610fa0565b9150826002028217905092915050565b610fe382610c2e565b67ffffffffffffffff811115610ffc57610ffb610a06565b5b6110068254610dfd565b611011828285610f4d565b600060209050601f8311600181146110445760008415611032578287015190505b61103c8582610fbe565b8655506110a4565b601f19841661105286610e2e565b60005b8281101561107a57848901518255600182019150602085019450602081019050611055565b868310156110975784890151611093601f891682610fa0565b8355505b6001600288020188555050505b505050505050565b60006110b782610861565b91507fffffffffffffffffffffffffffffffffffffffffffffffffffffffffffffffff82036110e9576110e8610d6e565b5b60018201905091905056fea264697066735822122077d6bc88f60663622e75de2991c5ccb2411ed462222be4302132e765ae2fbfc464736f6c634300080f0033","opcodes":"PUSH1 0x80 PUSH1 0x40 MSTORE PUSH1 0x0 PUSH1 0x2 SSTORE CALLVALUE DUP1 ISZERO PUSH3 0x16 JUMPI PUSH1 0x0 DUP1 REVERT JUMPDEST POP PUSH1 0x40 MLOAD PUSH3 0x12B1 CODESIZE SUB DUP1 PUSH3 0x12B1 DUP4 CODECOPY DUP2 DUP2 ADD PUSH1 0x40 MSTORE DUP2 ADD SWAP1 PUSH3 0x3C SWAP2 SWAP1 PUSH3 0x130 JUMP JUMPDEST DUP1 PUSH1 0x0 DUP1 PUSH2 0x100 EXP DUP2 SLOAD DUP2 PUSH20 0xFFFFFFFFFFFFFFFFFFFFFFFFFFFFFFFFFFFFFFFF MUL NOT AND SWAP1 DUP4 PUSH20 0xFFFFFFFFFFFFFFFFFFFFFFFFFFFFFFFFFFFFFFFF AND MUL OR SWAP1 SSTORE POP DUP2 PUSH1 0x1 DUP2 SWAP1 SSTORE POP POP POP PUSH3 0x177 JUMP JUMPDEST PUSH1 0x0 DUP1 REVERT JUMPDEST PUSH1 0x0 DUP2 SWAP1 POP SWAP2 SWAP1 POP JUMP JUMPDEST PUSH3 0xA5 DUP2 PUSH3 0x90 JUMP JUMPDEST DUP2 EQ PUSH3 0xB1 JUMPI PUSH1 0x0 DUP1 REVERT JUMPDEST POP JUMP JUMPDEST PUSH1 0x0 DUP2 MLOAD SWAP1 POP PUSH3 0xC5 DUP2 PUSH3 0x9A JUMP JUMPDEST SWAP3 SWAP2 POP POP JUMP JUMPDEST PUSH1 0x0 PUSH20 0xFFFFFFFFFFFFFFFFFFFFFFFFFFFFFFFFFFFFFFFF DUP3 AND SWAP1 POP SWAP2 SWAP1 POP JUMP JUMPDEST PUSH1 0x0 PUSH3 0xF8 DUP3 PUSH3 0xCB JUMP JUMPDEST SWAP1 POP SWAP2 SWAP1 POP JUMP JUMPDEST PUSH3 0x10A DUP2 PUSH3 0xEB JUMP JUMPDEST DUP2 EQ PUSH3 0x116 JUMPI PUSH1 0x0 DUP1 REVERT JUMPDEST POP JUMP JUMPDEST PUSH1 0x0 DUP2 MLOAD SWAP1 POP PUSH3 0x12A DUP2 PUSH3 0xFF JUMP JUMPDEST SWAP3 SWAP2 POP POP JUMP JUMPDEST PUSH1 0x0 DUP1 PUSH1 0x40 DUP4 DUP6 SUB SLT ISZERO PUSH3 0x14A JUMPI PUSH3 0x149 PUSH3 0x8B JUMP JUMPDEST JUMPDEST PUSH1 0x0 PUSH3 0x15A DUP6 DUP3 DUP7 ADD PUSH3 0xB4 JUMP JUMPDEST SWAP3 POP POP PUSH1 0x20 PUSH3 0x16D DUP6 DUP3 DUP7 ADD PUSH3 0x119 JUMP JUMPDEST SWAP2 POP POP SWAP3 POP SWAP3 SWAP1 POP JUMP JUMPDEST PUSH2 0x112A DUP1 PUSH3 0x187 PUSH1 0x0 CODECOPY PUSH1 0x0 RETURN INVALID PUSH1 0x80 PUSH1 0x40 MSTORE PUSH1 0x4 CALLDATASIZE LT PUSH2 0x9C JUMPI PUSH1 0x0 CALLDATALOAD PUSH1 0xE0 SHR DUP1 PUSH4 0x8A9CFD55 GT PUSH2 0x64 JUMPI DUP1 PUSH4 0x8A9CFD55 EQ PUSH2 0x188 JUMPI DUP1 PUSH4 0xAAFFADF3 EQ PUSH2 0x1B1 JUMPI DUP1 PUSH4 0xAEE14460 EQ PUSH2 0x1DC JUMPI DUP1 PUSH4 0xD7BB99BA EQ PUSH2 0x21D JUMPI DUP1 PUSH4 0xD7D1BBDB EQ PUSH2 0x227 JUMPI DUP1 PUSH4 0xD845A4B3 EQ PUSH2 0x250 JUMPI PUSH2 0x9C JUMP JUMPDEST DUP1 PUSH4 0x3441006 EQ PUSH2 0xA1 JUMPI DUP1 PUSH4 0xA144391 EQ PUSH2 0xCA JUMPI DUP1 PUSH4 0x3410452A EQ PUSH2 0x107 JUMPI DUP1 PUSH4 0x481C6A75 EQ PUSH2 0x132 JUMPI DUP1 PUSH4 0x82FDE093 EQ PUSH2 0x15D JUMPI JUMPDEST PUSH1 0x0 DUP1 REVERT JUMPDEST CALLVALUE DUP1 ISZERO PUSH2 0xAD JUMPI PUSH1 0x0 DUP1 REVERT JUMPDEST POP PUSH2 0xC8 PUSH1 0x4 DUP1 CALLDATASIZE SUB DUP2 ADD SWAP1 PUSH2 0xC3 SWAP2 SWAP1 PUSH2 0x897 JUMP JUMPDEST PUSH2 0x291 JUMP JUMPDEST STOP JUMPDEST CALLVALUE DUP1 ISZERO PUSH2 0xD6 JUMPI PUSH1 0x0 DUP1 REVERT JUMPDEST POP PUSH2 0xF1 PUSH1 0x4 DUP1 CALLDATASIZE SUB DUP2 ADD SWAP1 PUSH2 0xEC SWAP2 SWAP1 PUSH2 0x922 JUMP JUMPDEST PUSH2 0x3D8 JUMP JUMPDEST PUSH1 0x40 MLOAD PUSH2 0xFE SWAP2 SWAP1 PUSH2 0x96A JUMP JUMPDEST PUSH1 0x40 MLOAD DUP1 SWAP2 SUB SWAP1 RETURN JUMPDEST CALLVALUE DUP1 ISZERO PUSH2 0x113 JUMPI PUSH1 0x0 DUP1 REVERT JUMPDEST POP PUSH2 0x11C PUSH2 0x3F8 JUMP JUMPDEST PUSH1 0x40 MLOAD PUSH2 0x129 SWAP2 SWAP1 PUSH2 0x994 JUMP JUMPDEST PUSH1 0x40 MLOAD DUP1 SWAP2 SUB SWAP1 RETURN JUMPDEST CALLVALUE DUP1 ISZERO PUSH2 0x13E JUMPI PUSH1 0x0 DUP1 REVERT JUMPDEST POP PUSH2 0x147 PUSH2 0x405 JUMP JUMPDEST PUSH1 0x40 MLOAD PUSH2 0x154 SWAP2 SWAP1 PUSH2 0x9D0 JUMP JUMPDEST PUSH1 0x40 MLOAD DUP1 SWAP2 SUB SWAP1 RETURN JUMPDEST CALLVALUE DUP1 ISZERO PUSH2 0x169 JUMPI PUSH1 0x0 DUP1 REVERT JUMPDEST POP PUSH2 0x172 PUSH2 0x429 JUMP JUMPDEST PUSH1 0x40 MLOAD PUSH2 0x17F SWAP2 SWAP1 PUSH2 0x994 JUMP JUMPDEST PUSH1 0x40 MLOAD DUP1 SWAP2 SUB SWAP1 RETURN JUMPDEST CALLVALUE DUP1 ISZERO PUSH2 0x194 JUMPI PUSH1 0x0 DUP1 REVERT JUMPDEST POP PUSH2 0x1AF PUSH1 0x4 DUP1 CALLDATASIZE SUB DUP2 ADD SWAP1 PUSH2 0x1AA SWAP2 SWAP1 PUSH2 0xB5D JUMP JUMPDEST PUSH2 0x42F JUMP JUMPDEST STOP JUMPDEST CALLVALUE DUP1 ISZERO PUSH2 0x1BD JUMPI PUSH1 0x0 DUP1 REVERT JUMPDEST POP PUSH2 0x1C6 PUSH2 0x536 JUMP JUMPDEST PUSH1 0x40 MLOAD PUSH2 0x1D3 SWAP2 SWAP1 PUSH2 0x994 JUMP JUMPDEST PUSH1 0x40 MLOAD DUP1 SWAP2 SUB SWAP1 RETURN JUMPDEST CALLVALUE DUP1 ISZERO PUSH2 0x1E8 JUMPI PUSH1 0x0 DUP1 REVERT JUMPDEST POP PUSH2 0x203 PUSH1 0x4 DUP1 CALLDATASIZE SUB DUP2 ADD SWAP1 PUSH2 0x1FE SWAP2 SWAP1 PUSH2 0x897 JUMP JUMPDEST PUSH2 0x53C JUMP JUMPDEST PUSH1 0x40 MLOAD PUSH2 0x214 SWAP6 SWAP5 SWAP4 SWAP3 SWAP2 SWAP1 PUSH2 0xBDB JUMP JUMPDEST PUSH1 0x40 MLOAD DUP1 SWAP2 SUB SWAP1 RETURN JUMPDEST PUSH2 0x225 PUSH2 0x585 JUMP JUMPDEST STOP JUMPDEST CALLVALUE DUP1 ISZERO PUSH2 0x233 JUMPI PUSH1 0x0 DUP1 REVERT JUMPDEST POP PUSH2 0x24E PUSH1 0x4 DUP1 CALLDATASIZE SUB DUP2 ADD SWAP1 PUSH2 0x249 SWAP2 SWAP1 PUSH2 0x897 JUMP JUMPDEST PUSH2 0x605 JUMP JUMPDEST STOP JUMPDEST CALLVALUE DUP1 ISZERO PUSH2 0x25C JUMPI PUSH1 0x0 DUP1 REVERT JUMPDEST POP PUSH2 0x277 PUSH1 0x4 DUP1 CALLDATASIZE SUB DUP2 ADD SWAP1 PUSH2 0x272 SWAP2 SWAP1 PUSH2 0x897 JUMP JUMPDEST PUSH2 0x752 JUMP JUMPDEST PUSH1 0x40 MLOAD PUSH2 0x288 SWAP6 SWAP5 SWAP4 SWAP3 SWAP2 SWAP1 PUSH2 0xCB6 JUMP JUMPDEST PUSH1 0x40 MLOAD DUP1 SWAP2 SUB SWAP1 RETURN JUMPDEST PUSH1 0x0 DUP1 SLOAD SWAP1 PUSH2 0x100 EXP SWAP1 DIV PUSH20 0xFFFFFFFFFFFFFFFFFFFFFFFFFFFFFFFFFFFFFFFF AND PUSH20 0xFFFFFFFFFFFFFFFFFFFFFFFFFFFFFFFFFFFFFFFF AND CALLER PUSH20 0xFFFFFFFFFFFFFFFFFFFFFFFFFFFFFFFFFFFFFFFF AND EQ PUSH2 0x2E9 JUMPI PUSH1 0x0 DUP1 REVERT JUMPDEST PUSH1 0x0 PUSH1 0x4 DUP3 DUP2 SLOAD DUP2 LT PUSH2 0x2FF JUMPI PUSH2 0x2FE PUSH2 0xD10 JUMP JUMPDEST JUMPDEST SWAP1 PUSH1 0x0 MSTORE PUSH1 0x20 PUSH1 0x0 KECCAK256 SWAP1 PUSH1 0x5 MUL ADD SWAP1 POP PUSH1 0x2 DUP1 SLOAD PUSH2 0x31D SWAP2 SWAP1 PUSH2 0xD9D JUMP JUMPDEST DUP2 PUSH1 0x3 ADD SLOAD GT PUSH2 0x32C JUMPI PUSH1 0x0 DUP1 REVERT JUMPDEST DUP1 PUSH1 0x2 ADD PUSH1 0x14 SWAP1 SLOAD SWAP1 PUSH2 0x100 EXP SWAP1 DIV PUSH1 0xFF AND ISZERO PUSH2 0x348 JUMPI PUSH1 0x0 DUP1 REVERT JUMPDEST PUSH1 0x1 DUP2 PUSH1 0x2 ADD PUSH1 0x14 PUSH2 0x100 EXP DUP2 SLOAD DUP2 PUSH1 0xFF MUL NOT AND SWAP1 DUP4 ISZERO ISZERO MUL OR SWAP1 SSTORE POP DUP1 PUSH1 0x2 ADD PUSH1 0x0 SWAP1 SLOAD SWAP1 PUSH2 0x100 EXP SWAP1 DIV PUSH20 0xFFFFFFFFFFFFFFFFFFFFFFFFFFFFFFFFFFFFFFFF AND PUSH20 0xFFFFFFFFFFFFFFFFFFFFFFFFFFFFFFFFFFFFFFFF AND PUSH2 0x8FC DUP3 PUSH1 0x1 ADD SLOAD SWAP1 DUP2 ISZERO MUL SWAP1 PUSH1 0x40 MLOAD PUSH1 0x0 PUSH1 0x40 MLOAD DUP1 DUP4 SUB DUP2 DUP6 DUP9 DUP9 CALL SWAP4 POP POP POP POP ISZERO DUP1 ISZERO PUSH2 0x3D3 JUMPI RETURNDATASIZE PUSH1 0x0 DUP1 RETURNDATACOPY RETURNDATASIZE PUSH1 0x0 REVERT JUMPDEST POP POP POP JUMP JUMPDEST PUSH1 0x3 PUSH1 0x20 MSTORE DUP1 PUSH1 0x0 MSTORE PUSH1 0x40 PUSH1 0x0 KECCAK256 PUSH1 0x0 SWAP2 POP SLOAD SWAP1 PUSH2 0x100 EXP SWAP1 DIV PUSH1 0xFF AND DUP2 JUMP JUMPDEST PUSH1 0x0 PUSH1 0x4 DUP1 SLOAD SWAP1 POP SWAP1 POP SWAP1 JUMP JUMPDEST PUSH1 0x0 DUP1 SLOAD SWAP1 PUSH2 0x100 EXP SWAP1 DIV PUSH20 0xFFFFFFFFFFFFFFFFFFFFFFFFFFFFFFFFFFFFFFFF AND DUP2 JUMP JUMPDEST PUSH1 0x2 SLOAD DUP2 JUMP JUMPDEST PUSH1 0x0 DUP1 SLOAD SWAP1 PUSH2 0x100 EXP SWAP1 DIV PUSH20 0xFFFFFFFFFFFFFFFFFFFFFFFFFFFFFFFFFFFFFFFF AND PUSH20 0xFFFFFFFFFFFFFFFFFFFFFFFFFFFFFFFFFFFFFFFF AND CALLER PUSH20 0xFFFFFFFFFFFFFFFFFFFFFFFFFFFFFFFFFFFFFFFF AND EQ PUSH2 0x487 JUMPI PUSH1 0x0 DUP1 REVERT JUMPDEST PUSH1 0x0 PUSH1 0x4 PUSH1 0x1 DUP2 PUSH1 0x1 DUP2 SLOAD ADD DUP1 DUP3 SSTORE DUP1 SWAP2 POP POP SUB SWAP1 PUSH1 0x0 MSTORE PUSH1 0x20 PUSH1 0x0 KECCAK256 SWAP1 PUSH1 0x5 MUL ADD SWAP1 POP DUP4 DUP2 PUSH1 0x0 ADD SWAP1 DUP2 PUSH2 0x4BC SWAP2 SWAP1 PUSH2 0xFDA JUMP JUMPDEST POP DUP3 DUP2 PUSH1 0x1 ADD DUP2 SWAP1 SSTORE POP DUP2 DUP2 PUSH1 0x2 ADD PUSH1 0x0 PUSH2 0x100 EXP DUP2 SLOAD DUP2 PUSH20 0xFFFFFFFFFFFFFFFFFFFFFFFFFFFFFFFFFFFFFFFF MUL NOT AND SWAP1 DUP4 PUSH20 0xFFFFFFFFFFFFFFFFFFFFFFFFFFFFFFFFFFFFFFFF AND MUL OR SWAP1 SSTORE POP PUSH1 0x0 DUP2 PUSH1 0x2 ADD PUSH1 0x14 PUSH2 0x100 EXP DUP2 SLOAD DUP2 PUSH1 0xFF MUL NOT AND SWAP1 DUP4 ISZERO ISZERO MUL OR SWAP1 SSTORE POP PUSH1 0x0 DUP2 PUSH1 0x3 ADD DUP2 SWAP1 SSTORE POP POP POP POP POP JUMP JUMPDEST PUSH1 0x1 SLOAD DUP2 JUMP JUMPDEST PUSH1 0x0 DUP1 PUSH1 0x0 DUP1 PUSH1 0x0 SELFBALANCE PUSH1 0x4 DUP1 SLOAD SWAP1 POP PUSH1 0x1 SLOAD PUSH1 0x2 SLOAD PUSH1 0x0 DUP1 SLOAD SWAP1 PUSH2 0x100 EXP SWAP1 DIV PUSH20 0xFFFFFFFFFFFFFFFFFFFFFFFFFFFFFFFFFFFFFFFF AND SWAP5 POP SWAP5 POP SWAP5 POP SWAP5 POP SWAP5 POP SWAP2 SWAP4 SWAP6 SWAP1 SWAP3 SWAP5 POP JUMP JUMPDEST PUSH1 0x1 SLOAD CALLVALUE GT PUSH2 0x593 JUMPI PUSH1 0x0 DUP1 REVERT JUMPDEST PUSH1 0x1 PUSH1 0x3 PUSH1 0x0 CALLER PUSH20 0xFFFFFFFFFFFFFFFFFFFFFFFFFFFFFFFFFFFFFFFF AND PUSH20 0xFFFFFFFFFFFFFFFFFFFFFFFFFFFFFFFFFFFFFFFF AND DUP2 MSTORE PUSH1 0x20 ADD SWAP1 DUP2 MSTORE PUSH1 0x20 ADD PUSH1 0x0 KECCAK256 PUSH1 0x0 PUSH2 0x100 EXP DUP2 SLOAD DUP2 PUSH1 0xFF MUL NOT AND SWAP1 DUP4 ISZERO ISZERO MUL OR SWAP1 SSTORE POP PUSH1 0x2 PUSH1 0x0 DUP2 SLOAD DUP1 SWAP3 SWAP2 SWAP1 PUSH2 0x5FE SWAP1 PUSH2 0x10AC JUMP JUMPDEST SWAP2 SWAP1 POP SSTORE POP JUMP JUMPDEST PUSH1 0x0 PUSH1 0x4 DUP3 DUP2 SLOAD DUP2 LT PUSH2 0x61B JUMPI PUSH2 0x61A PUSH2 0xD10 JUMP JUMPDEST JUMPDEST SWAP1 PUSH1 0x0 MSTORE PUSH1 0x20 PUSH1 0x0 KECCAK256 SWAP1 PUSH1 0x5 MUL ADD SWAP1 POP PUSH1 0x3 PUSH1 0x0 CALLER PUSH20 0xFFFFFFFFFFFFFFFFFFFFFFFFFFFFFFFFFFFFFFFF AND PUSH20 0xFFFFFFFFFFFFFFFFFFFFFFFFFFFFFFFFFFFFFFFF AND DUP2 MSTORE PUSH1 0x20 ADD SWAP1 DUP2 MSTORE PUSH1 0x20 ADD PUSH1 0x0 KECCAK256 PUSH1 0x0 SWAP1 SLOAD SWAP1 PUSH2 0x100 EXP SWAP1 DIV PUSH1 0xFF AND PUSH2 0x681 JUMPI PUSH1 0x0 DUP1 REVERT JUMPDEST DUP1 PUSH1 0x4 ADD PUSH1 0x0 CALLER PUSH20 0xFFFFFFFFFFFFFFFFFFFFFFFFFFFFFFFFFFFFFFFF AND PUSH20 0xFFFFFFFFFFFFFFFFFFFFFFFFFFFFFFFFFFFFFFFF AND DUP2 MSTORE PUSH1 0x20 ADD SWAP1 DUP2 MSTORE PUSH1 0x20 ADD PUSH1 0x0 KECCAK256 PUSH1 0x0 SWAP1 SLOAD SWAP1 PUSH2 0x100 EXP SWAP1 DIV PUSH1 0xFF AND ISZERO PUSH2 0x6DA JUMPI PUSH1 0x0 DUP1 REVERT JUMPDEST PUSH1 0x1 DUP2 PUSH1 0x4 ADD PUSH1 0x0 CALLER PUSH20 0xFFFFFFFFFFFFFFFFFFFFFFFFFFFFFFFFFFFFFFFF AND PUSH20 0xFFFFFFFFFFFFFFFFFFFFFFFFFFFFFFFFFFFFFFFF AND DUP2 MSTORE PUSH1 0x20 ADD SWAP1 DUP2 MSTORE PUSH1 0x20 ADD PUSH1 0x0 KECCAK256 PUSH1 0x0 PUSH2 0x100 EXP DUP2 SLOAD DUP2 PUSH1 0xFF MUL NOT AND SWAP1 DUP4 ISZERO ISZERO MUL OR SWAP1 SSTORE POP DUP1 PUSH1 0x3 ADD PUSH1 0x0 DUP2 SLOAD DUP1 SWAP3 SWAP2 SWAP1 PUSH2 0x749 SWAP1 PUSH2 0x10AC JUMP JUMPDEST SWAP2 SWAP1 POP SSTORE POP POP POP JUMP JUMPDEST PUSH1 0x4 DUP2 DUP2 SLOAD DUP2 LT PUSH2 0x762 JUMPI PUSH1 0x0 DUP1 REVERT JUMPDEST SWAP1 PUSH1 0x0 MSTORE PUSH1 0x20 PUSH1 0x0 KECCAK256 SWAP1 PUSH1 0x5 MUL ADD PUSH1 0x0 SWAP2 POP SWAP1 POP DUP1 PUSH1 0x0 ADD DUP1 SLOAD PUSH2 0x785 SWAP1 PUSH2 0xDFD JUMP JUMPDEST DUP1 PUSH1 0x1F ADD PUSH1 0x20 DUP1 SWAP2 DIV MUL PUSH1 0x20 ADD PUSH1 0x40 MLOAD SWAP1 DUP2 ADD PUSH1 0x40 MSTORE DUP1 SWAP3 SWAP2 SWAP1 DUP2 DUP2 MSTORE PUSH1 0x20 ADD DUP3 DUP1 SLOAD PUSH2 0x7B1 SWAP1 PUSH2 0xDFD JUMP JUMPDEST DUP1 ISZERO PUSH2 0x7FE JUMPI DUP1 PUSH1 0x1F LT PUSH2 0x7D3 JUMPI PUSH2 0x100 DUP1 DUP4 SLOAD DIV MUL DUP4 MSTORE SWAP2 PUSH1 0x20 ADD SWAP2 PUSH2 0x7FE JUMP JUMPDEST DUP3 ADD SWAP2 SWAP1 PUSH1 0x0 MSTORE PUSH1 0x20 PUSH1 0x0 KECCAK256 SWAP1 JUMPDEST DUP2 SLOAD DUP2 MSTORE SWAP1 PUSH1 0x1 ADD SWAP1 PUSH1 0x20 ADD DUP1 DUP4 GT PUSH2 0x7E1 JUMPI DUP3 SWAP1 SUB PUSH1 0x1F AND DUP3 ADD SWAP2 JUMPDEST POP POP POP POP POP SWAP1 DUP1 PUSH1 0x1 ADD SLOAD SWAP1 DUP1 PUSH1 0x2 ADD PUSH1 0x0 SWAP1 SLOAD SWAP1 PUSH2 0x100 EXP SWAP1 DIV PUSH20 0xFFFFFFFFFFFFFFFFFFFFFFFFFFFFFFFFFFFFFFFF AND SWAP1 DUP1 PUSH1 0x2 ADD PUSH1 0x14 SWAP1 SLOAD SWAP1 PUSH2 0x100 EXP SWAP1 DIV PUSH1 0xFF AND SWAP1 DUP1 PUSH1 0x3 ADD SLOAD SWAP1 POP DUP6 JUMP JUMPDEST PUSH1 0x0 PUSH1 0x40 MLOAD SWAP1 POP SWAP1 JUMP JUMPDEST PUSH1 0x0 DUP1 REVERT JUMPDEST PUSH1 0x0 DUP1 REVERT JUMPDEST PUSH1 0x0 DUP2 SWAP1 POP SWAP2 SWAP1 POP JUMP JUMPDEST PUSH2 0x874 DUP2 PUSH2 0x861 JUMP JUMPDEST DUP2 EQ PUSH2 0x87F JUMPI PUSH1 0x0 DUP1 REVERT JUMPDEST POP JUMP JUMPDEST PUSH1 0x0 DUP2 CALLDATALOAD SWAP1 POP PUSH2 0x891 DUP2 PUSH2 0x86B JUMP JUMPDEST SWAP3 SWAP2 POP POP JUMP JUMPDEST PUSH1 0x0 PUSH1 0x20 DUP3 DUP5 SUB SLT ISZERO PUSH2 0x8AD JUMPI PUSH2 0x8AC PUSH2 0x857 JUMP JUMPDEST JUMPDEST PUSH1 0x0 PUSH2 0x8BB DUP5 DUP3 DUP6 ADD PUSH2 0x882 JUMP JUMPDEST SWAP2 POP POP SWAP3 SWAP2 POP POP JUMP JUMPDEST PUSH1 0x0 PUSH20 0xFFFFFFFFFFFFFFFFFFFFFFFFFFFFFFFFFFFFFFFF DUP3 AND SWAP1 POP SWAP2 SWAP1 POP JUMP JUMPDEST PUSH1 0x0 PUSH2 0x8EF DUP3 PUSH2 0x8C4 JUMP JUMPDEST SWAP1 POP SWAP2 SWAP1 POP JUMP JUMPDEST PUSH2 0x8FF DUP2 PUSH2 0x8E4 JUMP JUMPDEST DUP2 EQ PUSH2 0x90A JUMPI PUSH1 0x0 DUP1 REVERT JUMPDEST POP JUMP JUMPDEST PUSH1 0x0 DUP2 CALLDATALOAD SWAP1 POP PUSH2 0x91C DUP2 PUSH2 0x8F6 JUMP JUMPDEST SWAP3 SWAP2 POP POP JUMP JUMPDEST PUSH1 0x0 PUSH1 0x20 DUP3 DUP5 SUB SLT ISZERO PUSH2 0x938 JUMPI PUSH2 0x937 PUSH2 0x857 JUMP JUMPDEST JUMPDEST PUSH1 0x0 PUSH2 0x946 DUP5 DUP3 DUP6 ADD PUSH2 0x90D JUMP JUMPDEST SWAP2 POP POP SWAP3 SWAP2 POP POP JUMP JUMPDEST PUSH1 0x0 DUP2 ISZERO ISZERO SWAP1 POP SWAP2 SWAP1 POP JUMP JUMPDEST PUSH2 0x964 DUP2 PUSH2 0x94F JUMP JUMPDEST DUP3 MSTORE POP POP JUMP JUMPDEST PUSH1 0x0 PUSH1 0x20 DUP3 ADD SWAP1 POP PUSH2 0x97F PUSH1 0x0 DUP4 ADD DUP5 PUSH2 0x95B JUMP JUMPDEST SWAP3 SWAP2 POP POP JUMP JUMPDEST PUSH2 0x98E DUP2 PUSH2 0x861 JUMP JUMPDEST DUP3 MSTORE POP POP JUMP JUMPDEST PUSH1 0x0 PUSH1 0x20 DUP3 ADD SWAP1 POP PUSH2 0x9A9 PUSH1 0x0 DUP4 ADD DUP5 PUSH2 0x985 JUMP JUMPDEST SWAP3 SWAP2 POP POP JUMP JUMPDEST PUSH1 0x0 PUSH2 0x9BA DUP3 PUSH2 0x8C4 JUMP JUMPDEST SWAP1 POP SWAP2 SWAP1 POP JUMP JUMPDEST PUSH2 0x9CA DUP2 PUSH2 0x9AF JUMP JUMPDEST DUP3 MSTORE POP POP JUMP JUMPDEST PUSH1 0x0 PUSH1 0x20 DUP3 ADD SWAP1 POP PUSH2 0x9E5 PUSH1 0x0 DUP4 ADD DUP5 PUSH2 0x9C1 JUMP JUMPDEST SWAP3 SWAP2 POP POP JUMP JUMPDEST PUSH1 0x0 DUP1 REVERT JUMPDEST PUSH1 0x0 DUP1 REVERT JUMPDEST PUSH1 0x0 PUSH1 0x1F NOT PUSH1 0x1F DUP4 ADD AND SWAP1 POP SWAP2 SWAP1 POP JUMP JUMPDEST PUSH32 0x4E487B7100000000000000000000000000000000000000000000000000000000 PUSH1 0x0 MSTORE PUSH1 0x41 PUSH1 0x4 MSTORE PUSH1 0x24 PUSH1 0x0 REVERT JUMPDEST PUSH2 0xA3E DUP3 PUSH2 0x9F5 JUMP JUMPDEST DUP2 ADD DUP2 DUP2 LT PUSH8 0xFFFFFFFFFFFFFFFF DUP3 GT OR ISZERO PUSH2 0xA5D JUMPI PUSH2 0xA5C PUSH2 0xA06 JUMP JUMPDEST JUMPDEST DUP1 PUSH1 0x40 MSTORE POP POP POP JUMP JUMPDEST PUSH1 0x0 PUSH2 0xA70 PUSH2 0x84D JUMP JUMPDEST SWAP1 POP PUSH2 0xA7C DUP3 DUP3 PUSH2 0xA35 JUMP JUMPDEST SWAP2 SWAP1 POP JUMP JUMPDEST PUSH1 0x0 PUSH8 0xFFFFFFFFFFFFFFFF DUP3 GT ISZERO PUSH2 0xA9C JUMPI PUSH2 0xA9B PUSH2 0xA06 JUMP JUMPDEST JUMPDEST PUSH2 0xAA5 DUP3 PUSH2 0x9F5 JUMP JUMPDEST SWAP1 POP PUSH1 0x20 DUP2 ADD SWAP1 POP SWAP2 SWAP1 POP JUMP JUMPDEST DUP3 DUP2 DUP4 CALLDATACOPY PUSH1 0x0 DUP4 DUP4 ADD MSTORE POP POP POP JUMP JUMPDEST PUSH1 0x0 PUSH2 0xAD4 PUSH2 0xACF DUP5 PUSH2 0xA81 JUMP JUMPDEST PUSH2 0xA66 JUMP JUMPDEST SWAP1 POP DUP3 DUP2 MSTORE PUSH1 0x20 DUP2 ADD DUP5 DUP5 DUP5 ADD GT ISZERO PUSH2 0xAF0 JUMPI PUSH2 0xAEF PUSH2 0x9F0 JUMP JUMPDEST JUMPDEST PUSH2 0xAFB DUP5 DUP3 DUP6 PUSH2 0xAB2 JUMP JUMPDEST POP SWAP4 SWAP3 POP POP POP JUMP JUMPDEST PUSH1 0x0 DUP3 PUSH1 0x1F DUP4 ADD SLT PUSH2 0xB18 JUMPI PUSH2 0xB17 PUSH2 0x9EB JUMP JUMPDEST JUMPDEST DUP2 CALLDATALOAD PUSH2 0xB28 DUP5 DUP3 PUSH1 0x20 DUP7 ADD PUSH2 0xAC1 JUMP JUMPDEST SWAP2 POP POP SWAP3 SWAP2 POP POP JUMP JUMPDEST PUSH2 0xB3A DUP2 PUSH2 0x9AF JUMP JUMPDEST DUP2 EQ PUSH2 0xB45 JUMPI PUSH1 0x0 DUP1 REVERT JUMPDEST POP JUMP JUMPDEST PUSH1 0x0 DUP2 CALLDATALOAD SWAP1 POP PUSH2 0xB57 DUP2 PUSH2 0xB31 JUMP JUMPDEST SWAP3 SWAP2 POP POP JUMP JUMPDEST PUSH1 0x0 DUP1 PUSH1 0x0 PUSH1 0x60 DUP5 DUP7 SUB SLT ISZERO PUSH2 0xB76 JUMPI PUSH2 0xB75 PUSH2 0x857 JUMP JUMPDEST JUMPDEST PUSH1 0x0 DUP5 ADD CALLDATALOAD PUSH8 0xFFFFFFFFFFFFFFFF DUP2 GT ISZERO PUSH2 0xB94 JUMPI PUSH2 0xB93 PUSH2 0x85C JUMP JUMPDEST JUMPDEST PUSH2 0xBA0 DUP7 DUP3 DUP8 ADD PUSH2 0xB03 JUMP JUMPDEST SWAP4 POP POP PUSH1 0x20 PUSH2 0xBB1 DUP7 DUP3 DUP8 ADD PUSH2 0x882 JUMP JUMPDEST SWAP3 POP POP PUSH1 0x40 PUSH2 0xBC2 DUP7 DUP3 DUP8 ADD PUSH2 0xB48 JUMP JUMPDEST SWAP2 POP POP SWAP3 POP SWAP3 POP SWAP3 JUMP JUMPDEST PUSH2 0xBD5 DUP2 PUSH2 0x8E4 JUMP JUMPDEST DUP3 MSTORE POP POP JUMP JUMPDEST PUSH1 0x0 PUSH1 0xA0 DUP3 ADD SWAP1 POP PUSH2 0xBF0 PUSH1 0x0 DUP4 ADD DUP9 PUSH2 0x985 JUMP JUMPDEST PUSH2 0xBFD PUSH1 0x20 DUP4 ADD DUP8 PUSH2 0x985 JUMP JUMPDEST PUSH2 0xC0A PUSH1 0x40 DUP4 ADD DUP7 PUSH2 0x985 JUMP JUMPDEST PUSH2 0xC17 PUSH1 0x60 DUP4 ADD DUP6 PUSH2 0x985 JUMP JUMPDEST PUSH2 0xC24 PUSH1 0x80 DUP4 ADD DUP5 PUSH2 0xBCC JUMP JUMPDEST SWAP7 SWAP6 POP POP POP POP POP POP JUMP JUMPDEST PUSH1 0x0 DUP2 MLOAD SWAP1 POP SWAP2 SWAP1 POP JUMP JUMPDEST PUSH1 0x0 DUP3 DUP3 MSTORE PUSH1 0x20 DUP3 ADD SWAP1 POP SWAP3 SWAP2 POP POP JUMP JUMPDEST PUSH1 0x0 JUMPDEST DUP4 DUP2 LT ISZERO PUSH2 0xC68 JUMPI DUP1 DUP3 ADD MLOAD DUP2 DUP5 ADD MSTORE PUSH1 0x20 DUP2 ADD SWAP1 POP PUSH2 0xC4D JUMP JUMPDEST DUP4 DUP2 GT ISZERO PUSH2 0xC77 JUMPI PUSH1 0x0 DUP5 DUP5 ADD MSTORE JUMPDEST POP POP POP POP JUMP JUMPDEST PUSH1 0x0 PUSH2 0xC88 DUP3 PUSH2 0xC2E JUMP JUMPDEST PUSH2 0xC92 DUP2 DUP6 PUSH2 0xC39 JUMP JUMPDEST SWAP4 POP PUSH2 0xCA2 DUP2 DUP6 PUSH1 0x20 DUP7 ADD PUSH2 0xC4A JUMP JUMPDEST PUSH2 0xCAB DUP2 PUSH2 0x9F5 JUMP JUMPDEST DUP5 ADD SWAP2 POP POP SWAP3 SWAP2 POP POP JUMP JUMPDEST PUSH1 0x0 PUSH1 0xA0 DUP3 ADD SWAP1 POP DUP2 DUP2 SUB PUSH1 0x0 DUP4 ADD MSTORE PUSH2 0xCD0 DUP2 DUP9 PUSH2 0xC7D JUMP JUMPDEST SWAP1 POP PUSH2 0xCDF PUSH1 0x20 DUP4 ADD DUP8 PUSH2 0x985 JUMP JUMPDEST PUSH2 0xCEC PUSH1 0x40 DUP4 ADD DUP7 PUSH2 0x9C1 JUMP JUMPDEST PUSH2 0xCF9 PUSH1 0x60 DUP4 ADD DUP6 PUSH2 0x95B JUMP JUMPDEST PUSH2 0xD06 PUSH1 0x80 DUP4 ADD DUP5 PUSH2 0x985 JUMP JUMPDEST SWAP7 SWAP6 POP POP POP POP POP POP JUMP JUMPDEST PUSH32 0x4E487B7100000000000000000000000000000000000000000000000000000000 PUSH1 0x0 MSTORE PUSH1 0x32 PUSH1 0x4 MSTORE PUSH1 0x24 PUSH1 0x0 REVERT JUMPDEST PUSH32 0x4E487B7100000000000000000000000000000000000000000000000000000000 PUSH1 0x0 MSTORE PUSH1 0x12 PUSH1 0x4 MSTORE PUSH1 0x24 PUSH1 0x0 REVERT JUMPDEST PUSH32 0x4E487B7100000000000000000000000000000000000000000000000000000000 PUSH1 0x0 MSTORE PUSH1 0x11 PUSH1 0x4 MSTORE PUSH1 0x24 PUSH1 0x0 REVERT JUMPDEST PUSH1 0x0 PUSH2 0xDA8 DUP3 PUSH2 0x861 JUMP JUMPDEST SWAP2 POP PUSH2 0xDB3 DUP4 PUSH2 0x861 JUMP JUMPDEST SWAP3 POP DUP3 PUSH2 0xDC3 JUMPI PUSH2 0xDC2 PUSH2 0xD3F JUMP JUMPDEST JUMPDEST DUP3 DUP3 DIV SWAP1 POP SWAP3 SWAP2 POP POP JUMP JUMPDEST PUSH32 0x4E487B7100000000000000000000000000000000000000000000000000000000 PUSH1 0x0 MSTORE PUSH1 0x22 PUSH1 0x4 MSTORE PUSH1 0x24 PUSH1 0x0 REVERT JUMPDEST PUSH1 0x0 PUSH1 0x2 DUP3 DIV SWAP1 POP PUSH1 0x1 DUP3 AND DUP1 PUSH2 0xE15 JUMPI PUSH1 0x7F DUP3 AND SWAP2 POP JUMPDEST PUSH1 0x20 DUP3 LT DUP2 SUB PUSH2 0xE28 JUMPI PUSH2 0xE27 PUSH2 0xDCE JUMP JUMPDEST JUMPDEST POP SWAP2 SWAP1 POP JUMP JUMPDEST PUSH1 0x0 DUP2 SWAP1 POP DUP2 PUSH1 0x0 MSTORE PUSH1 0x20 PUSH1 0x0 KECCAK256 SWAP1 POP SWAP2 SWAP1 POP JUMP JUMPDEST PUSH1 0x0 PUSH1 0x20 PUSH1 0x1F DUP4 ADD DIV SWAP1 POP SWAP2 SWAP1 POP JUMP JUMPDEST PUSH1 0x0 DUP3 DUP3 SHL SWAP1 POP SWAP3 SWAP2 POP POP JUMP JUMPDEST PUSH1 0x0 PUSH1 0x8 DUP4 MUL PUSH2 0xE90 PUSH32 0xFFFFFFFFFFFFFFFFFFFFFFFFFFFFFFFFFFFFFFFFFFFFFFFFFFFFFFFFFFFFFFFF DUP3 PUSH2 0xE53 JUMP JUMPDEST PUSH2 0xE9A DUP7 DUP4 PUSH2 0xE53 JUMP JUMPDEST SWAP6 POP DUP1 NOT DUP5 AND SWAP4 POP DUP1 DUP7 AND DUP5 OR SWAP3 POP POP POP SWAP4 SWAP3 POP POP POP JUMP JUMPDEST PUSH1 0x0 DUP2 SWAP1 POP SWAP2 SWAP1 POP JUMP JUMPDEST PUSH1 0x0 PUSH2 0xED7 PUSH2 0xED2 PUSH2 0xECD DUP5 PUSH2 0x861 JUMP JUMPDEST PUSH2 0xEB2 JUMP JUMPDEST PUSH2 0x861 JUMP JUMPDEST SWAP1 POP SWAP2 SWAP1 POP JUMP JUMPDEST PUSH1 0x0 DUP2 SWAP1 POP SWAP2 SWAP1 POP JUMP JUMPDEST PUSH2 0xEF1 DUP4 PUSH2 0xEBC JUMP JUMPDEST PUSH2 0xF05 PUSH2 0xEFD DUP3 PUSH2 0xEDE JUMP JUMPDEST DUP5 DUP5 SLOAD PUSH2 0xE60 JUMP JUMPDEST DUP3 SSTORE POP POP POP POP JUMP JUMPDEST PUSH1 0x0 SWAP1 JUMP JUMPDEST PUSH2 0xF1A PUSH2 0xF0D JUMP JUMPDEST PUSH2 0xF25 DUP2 DUP5 DUP5 PUSH2 0xEE8 JUMP JUMPDEST POP POP POP JUMP JUMPDEST JUMPDEST DUP2 DUP2 LT ISZERO PUSH2 0xF49 JUMPI PUSH2 0xF3E PUSH1 0x0 DUP3 PUSH2 0xF12 JUMP JUMPDEST PUSH1 0x1 DUP2 ADD SWAP1 POP PUSH2 0xF2B JUMP JUMPDEST POP POP JUMP JUMPDEST PUSH1 0x1F DUP3 GT ISZERO PUSH2 0xF8E JUMPI PUSH2 0xF5F DUP2 PUSH2 0xE2E JUMP JUMPDEST PUSH2 0xF68 DUP5 PUSH2 0xE43 JUMP JUMPDEST DUP2 ADD PUSH1 0x20 DUP6 LT ISZERO PUSH2 0xF77 JUMPI DUP2 SWAP1 POP JUMPDEST PUSH2 0xF8B PUSH2 0xF83 DUP6 PUSH2 0xE43 JUMP JUMPDEST DUP4 ADD DUP3 PUSH2 0xF2A JUMP JUMPDEST POP POP JUMPDEST POP POP POP JUMP JUMPDEST PUSH1 0x0 DUP3 DUP3 SHR SWAP1 POP SWAP3 SWAP2 POP POP JUMP JUMPDEST PUSH1 0x0 PUSH2 0xFB1 PUSH1 0x0 NOT DUP5 PUSH1 0x8 MUL PUSH2 0xF93 JUMP JUMPDEST NOT DUP1 DUP4 AND SWAP2 POP POP SWAP3 SWAP2 POP POP JUMP JUMPDEST PUSH1 0x0 PUSH2 0xFCA DUP4 DUP4 PUSH2 0xFA0 JUMP JUMPDEST SWAP2 POP DUP3 PUSH1 0x2 MUL DUP3 OR SWAP1 POP SWAP3 SWAP2 POP POP JUMP JUMPDEST PUSH2 0xFE3 DUP3 PUSH2 0xC2E JUMP JUMPDEST PUSH8 0xFFFFFFFFFFFFFFFF DUP2 GT ISZERO PUSH2 0xFFC JUMPI PUSH2 0xFFB PUSH2 0xA06 JUMP JUMPDEST JUMPDEST PUSH2 0x1006 DUP3 SLOAD PUSH2 0xDFD JUMP JUMPDEST PUSH2 0x1011 DUP3 DUP3 DUP6 PUSH2 0xF4D JUMP JUMPDEST PUSH1 0x0 PUSH1 0x20 SWAP1 POP PUSH1 0x1F DUP4 GT PUSH1 0x1 DUP2 EQ PUSH2 0x1044 JUMPI PUSH1 0x0 DUP5 ISZERO PUSH2 0x1032 JUMPI DUP3 DUP8 ADD MLOAD SWAP1 POP JUMPDEST PUSH2 0x103C DUP6 DUP3 PUSH2 0xFBE JUMP JUMPDEST DUP7 SSTORE POP PUSH2 0x10A4 JUMP JUMPDEST PUSH1 0x1F NOT DUP5 AND PUSH2 0x1052 DUP7 PUSH2 0xE2E JUMP JUMPDEST PUSH1 0x0 JUMPDEST DUP3 DUP2 LT ISZERO PUSH2 0x107A JUMPI DUP5 DUP10 ADD MLOAD DUP3 SSTORE PUSH1 0x1 DUP3 ADD SWAP2 POP PUSH1 0x20 DUP6 ADD SWAP5 POP PUSH1 0x20 DUP2 ADD SWAP1 POP PUSH2 0x1055 JUMP JUMPDEST DUP7 DUP4 LT ISZERO PUSH2 0x1097 JUMPI DUP5 DUP10 ADD MLOAD PUSH2 0x1093 PUSH1 0x1F DUP10 AND DUP3 PUSH2 0xFA0 JUMP JUMPDEST DUP4 SSTORE POP JUMPDEST PUSH1 0x1 PUSH1 0x2 DUP9 MUL ADD DUP9 SSTORE POP POP POP JUMPDEST POP POP POP POP POP POP JUMP JUMPDEST PUSH1 0x0 PUSH2 0x10B7 DUP3 PUSH2 0x861 JUMP JUMPDEST SWAP2 POP PUSH32 0xFFFFFFFFFFFFFFFFFFFFFFFFFFFFFFFFFFFFFFFFFFFFFFFFFFFFFFFFFFFFFFFF DUP3 SUB PUSH2 0x10E9 JUMPI PUSH2 0x10E8 PUSH2 0xD6E JUMP JUMPDEST JUMPDEST PUSH1 0x1 DUP3 ADD SWAP1 POP SWAP2 SWAP1 POP JUMP INVALID LOG2 PUSH5 0x6970667358 0x22 SLT KECCAK256 PUSH24 0xD6BC88F60663622E75DE2991C5CCB2411ED462222BE43021 ORIGIN 0xE7 PUSH6 0xAE2FBFC46473 PUSH16 0x6C634300080F00330000000000000000 "},"gasEstimates":{"creation":{"codeDepositCost":"878800","executionCost":"infinite","totalCost":"infinite"},"external":{"approveRequest(uint256)":"infinite","approvers(address)":"2868","approversCount()":"2518","contribute()":"51021","createRequest(string,uint256,address)":"infinite","finalizeRequest(uint256)":"infinite","getRequestsCount()":"2490","getSummary(uint256)":"infinite","manager()":"2578","minContribution()":"2451","request(uint256)":"infinite"},"internal":{"getAllRequests()":"infinite"}},"methodIdentifiers":{"approveRequest(uint256)":"d7d1bbdb","approvers(address)":"0a144391","approversCount()":"82fde093","contribute()":"d7bb99ba","createRequest(string,uint256,address)":"8a9cfd55","finalizeRequest(uint256)":"03441006","getRequestsCount()":"3410452a","getSummary(uint256)":"aee14460","manager()":"481c6a75","minContribution()":"aaffadf3","request(uint256)":"d845a4b3"}},"storageLayout":{"storage":[{"astId":42,"contract":"Campaign.sol:Campaign","label":"manager","offset":0,"slot":"0","type":"t_address_payable"},{"astId":44,"contract":"Campaign.sol:Campaign","label":"minContribution","offset":0,"slot":"1","type":"t_uint256"},{"astId":47,"contract":"Campaign.sol:Campaign","label":"approversCount","offset":0,"slot":"2","type":"t_uint256"},{"astId":51,"contract":"Campaign.sol:Campaign","label":"approvers","offset":0,"slot":"3","type":"t_mapping(t_address,t_bool)"},{"astId":70,"contract":"Campaign.sol:Campaign","label":"request","offset":0,"slot":"4","type":"t_array(t_struct(Request)66_storage)dyn_storage"}],"types":{"t_address":{"encoding":"inplace","label":"address","numberOfBytes":"20"},"t_address_payable":{"encoding":"inplace","label":"address payable","numberOfBytes":"20"},"t_array(t_struct(Request)66_storage)dyn_storage":{"base":"t_struct(Request)66_storage","encoding":"dynamic_array","label":"struct Campaign.Request[]","numberOfBytes":"32"},"t_bool":{"encoding":"inplace","label":"bool","numberOfBytes":"1"},"t_mapping(t_address,t_bool)":{"encoding":"mapping","key":"t_address","label":"mapping(address => bool)","numberOfBytes":"32","value":"t_bool"},"t_string_storage":{"encoding":"bytes","label":"string","numberOfBytes":"32"},"t_struct(Request)66_storage":{"encoding":"inplace","label":"struct Campaign.Request","members":[{"astId":53,"contract":"Campaign.sol:Campaign","label":"description","offset":0,"slot":"0","type":"t_string_storage"},{"astId":55,"contract":"Campaign.sol:Campaign","label":"value","offset":0,"slot":"1","type":"t_uint256"},{"astId":57,"contract":"Campaign.sol:Campaign","label":"recipent","offset":0,"slot":"2","type":"t_address_payable"},{"astId":59,"contract":"Campaign.sol:Campaign","label":"complete","offset":20,"slot":"2","type":"t_bool"},{"astId":61,"contract":"Campaign.sol:Campaign","label":"approvalCount","offset":0,"slot":"3","type":"t_uint256"},{"astId":65,"contract":"Campaign.sol:Campaign","label":"approvals","offset":0,"slot":"4","type":"t_mapping(t_address,t_bool)"}],"numberOfBytes":"160"},"t_uint256":{"encoding":"inplace","label":"uint256","numberOfBytes":"32"}}},"userdoc":{"kind":"user","methods":{},"version":1}}